{
  "address": "0x38907616E3f251F801997A64F2CEe1E2Bdd9b7da",
  "abi": [
    {
      "inputs": [
        {
          "internalType": "string",
          "name": "_managerSymbol",
          "type": "string"
        },
        {
          "internalType": "uint256",
          "name": "_seniorApy",
          "type": "uint256"
        },
        {
          "internalType": "address",
          "name": "_loanFactory",
          "type": "address"
        },
        {
          "internalType": "address",
          "name": "_depositToken",
          "type": "address"
        },
        {
          "internalType": "address",
          "name": "_delegator",
          "type": "address"
        }
      ],
      "stateMutability": "nonpayable",
      "type": "constructor"
    },
    {
      "anonymous": false,
      "inputs": [
        {
          "indexed": true,
          "internalType": "address",
          "name": "previousOwner",
          "type": "address"
        },
        {
          "indexed": true,
          "internalType": "address",
          "name": "newOwner",
          "type": "address"
        }
      ],
      "name": "OwnershipTransferred",
      "type": "event"
    },
    {
      "inputs": [
        {
          "internalType": "address",
          "name": "_delegator",
          "type": "address"
        }
      ],
      "name": "addDelegator",
      "outputs": [],
      "stateMutability": "nonpayable",
      "type": "function"
    },
    {
      "inputs": [
        {
          "internalType": "uint256",
          "name": "creditId",
          "type": "uint256"
        }
      ],
      "name": "claimUnderlying",
      "outputs": [],
      "stateMutability": "nonpayable",
      "type": "function"
    },
    {
      "inputs": [],
      "name": "delegator",
      "outputs": [
        {
          "internalType": "contract Delegator",
          "name": "",
          "type": "address"
        }
      ],
      "stateMutability": "view",
      "type": "function"
    },
    {
      "inputs": [
        {
          "internalType": "uint256",
          "name": "amount",
          "type": "uint256"
        },
        {
          "internalType": "address",
          "name": "to",
          "type": "address"
        }
      ],
      "name": "depositJunior",
      "outputs": [],
      "stateMutability": "nonpayable",
      "type": "function"
    },
    {
      "inputs": [
        {
          "internalType": "uint256",
          "name": "amount",
          "type": "uint256"
        },
        {
          "internalType": "address",
          "name": "to",
          "type": "address"
        }
      ],
      "name": "depositSenior",
      "outputs": [],
      "stateMutability": "nonpayable",
      "type": "function"
    },
    {
      "inputs": [],
      "name": "depositToken",
      "outputs": [
        {
          "internalType": "contract IERC20",
          "name": "",
          "type": "address"
        }
      ],
      "stateMutability": "view",
      "type": "function"
    },
    {
      "inputs": [
        {
          "internalType": "uint256",
          "name": "loanId",
          "type": "uint256"
        }
      ],
      "name": "fundLoan",
      "outputs": [],
      "stateMutability": "nonpayable",
      "type": "function"
    },
    {
      "inputs": [],
      "name": "junior",
      "outputs": [
        {
          "internalType": "contract FundTranche",
          "name": "",
          "type": "address"
        }
      ],
      "stateMutability": "view",
      "type": "function"
    },
    {
      "inputs": [],
      "name": "loanFactory",
      "outputs": [
        {
          "internalType": "contract MicroLoanFactory",
          "name": "",
          "type": "address"
        }
      ],
      "stateMutability": "view",
      "type": "function"
    },
    {
      "inputs": [],
      "name": "owner",
      "outputs": [
        {
          "internalType": "address",
          "name": "",
          "type": "address"
        }
      ],
      "stateMutability": "view",
      "type": "function"
    },
    {
      "inputs": [],
      "name": "renounceOwnership",
      "outputs": [],
      "stateMutability": "nonpayable",
      "type": "function"
    },
    {
      "inputs": [],
      "name": "riskThreshold",
      "outputs": [
        {
          "internalType": "uint256",
          "name": "",
          "type": "uint256"
        }
      ],
      "stateMutability": "view",
      "type": "function"
    },
    {
      "inputs": [],
      "name": "senior",
      "outputs": [
        {
          "internalType": "contract FundTranche",
          "name": "",
          "type": "address"
        }
      ],
      "stateMutability": "view",
      "type": "function"
    },
    {
      "inputs": [],
      "name": "seniorApy",
      "outputs": [
        {
          "internalType": "uint256",
          "name": "",
          "type": "uint256"
        }
      ],
      "stateMutability": "view",
      "type": "function"
    },
    {
      "inputs": [],
      "name": "totalDeposited",
      "outputs": [
        {
          "internalType": "uint256",
          "name": "",
          "type": "uint256"
        }
      ],
      "stateMutability": "view",
      "type": "function"
    },
    {
      "inputs": [
        {
          "internalType": "address",
          "name": "newOwner",
          "type": "address"
        }
      ],
      "name": "transferOwnership",
      "outputs": [],
      "stateMutability": "nonpayable",
      "type": "function"
    },
    {
      "inputs": [
        {
          "internalType": "uint256",
          "name": "amount",
          "type": "uint256"
        },
        {
          "internalType": "address",
          "name": "to",
          "type": "address"
        }
      ],
      "name": "withdrawJunior",
      "outputs": [],
      "stateMutability": "nonpayable",
      "type": "function"
    },
    {
      "inputs": [
        {
          "internalType": "uint256",
          "name": "amount",
          "type": "uint256"
        },
        {
          "internalType": "address",
          "name": "to",
          "type": "address"
        }
      ],
      "name": "withdrawSenior",
      "outputs": [],
      "stateMutability": "nonpayable",
      "type": "function"
    }
  ],
  "transactionHash": "0x501d9646a5b715dd126b3bfdb5a598dc7ec90eec8d117b436a82e47f4b50097a",
  "args": [
    "TST",
    10000000000,
    "0x0639035153f57dbB8CF4A9755d2395b65F2b4eDf",
    "0x3c5CD8f6D5A036325Af10FeD4fC6A71dcfF14a8A",
    "0x25E9C21973125edAe21493e967060EC34eEe8CE9"
  ],
  "numDeployments": 1,
  "solcInputHash": "e4ae6a94b061cbc6d9bd3f2b4079ad9c",
  "bytecode": "0x60806040523480156200001157600080fd5b506040516200251d3803806200251d833981016040819052620000349162000263565b6200003f336200019f565b846040516200004e90620001ef565b6200005a91906200038d565b604051809103906000f08015801562000077573d6000803e3d6000fd5b50600380546001600160a01b0319166001600160a01b03929092169190911790556040518590620000a890620001ef565b620000b49190620003c5565b604051809103906000f080158015620000d1573d6000803e3d6000fd5b50600480546001600160a01b03199081166001600160a01b039384161782556001879055600580548216878516908117909155600780548316878616908117909155620186a0600655600280549093169486169490941790915560405163095ea7b360e01b815291820152600019602482015263095ea7b3906044016020604051808303816000875af11580156200016d573d6000803e3d6000fd5b505050506040513d601f19601f82011682018060405250810190620001939190620003fd565b50505050505062000428565b600080546001600160a01b038381166001600160a01b0319831681178455604051919092169283917f8be0079c531659141344cd1fd0a4f28419497f9722a3daafe3b4186f6b6457e09190a35050565b6112bf806200125e83390190565b634e487b7160e01b600052604160045260246000fd5b60005b838110156200023057818101518382015260200162000216565b8381111562000240576000848401525b50505050565b80516001600160a01b03811681146200025e57600080fd5b919050565b600080600080600060a086880312156200027c57600080fd5b85516001600160401b03808211156200029457600080fd5b818801915088601f830112620002a957600080fd5b815181811115620002be57620002be620001fd565b604051601f8201601f19908116603f01168101908382118183101715620002e957620002e9620001fd565b816040528281528b60208487010111156200030357600080fd5b6200031683602083016020880162000213565b809950505050505060208601519350620003336040870162000246565b9250620003436060870162000246565b9150620003536080870162000246565b90509295509295909350565b600081518084526200037981602086016020860162000213565b601f01601f19169290920160200192915050565b604081526000620003a260408301846200035f565b828103602084015260018152603560f91b60208201526040810191505092915050565b604081526000620003da60408301846200035f565b828103602084015260018152607360f81b60208201526040810191505092915050565b6000602082840312156200041057600080fd5b815180151581146200042157600080fd5b9392505050565b610e2680620004386000396000f3fe608060405234801561001057600080fd5b50600436106101355760003560e01c8063b385b28a116100b2578063ce9b793011610081578063f15086e511610066578063f15086e51461025f578063f2fde38b14610272578063ff50abdc1461028557600080fd5b8063ce9b793014610239578063eab77ac91461024c57600080fd5b8063b385b28a146101f7578063b43e6cb41461020a578063c5e2d2a614610213578063c89039c51461022657600080fd5b80638097be04116101095780638a2ba9d2116100ee5780638a2ba9d2146101ac5780638da5cb5b146101bf578063b37ed8cd146101e457600080fd5b80638097be0414610186578063846b909a1461019957600080fd5b8062cc3bce1461013a5780631fd942cd1461015657806321fb4c351461016b578063715018a61461017e575b600080fd5b61014360015481565b6040519081526020015b60405180910390f35b610169610164366004610ccd565b61028e565b005b610169610179366004610cfd565b61041a565b6101696104ae565b610169610194366004610ccd565b610514565b6101696101a7366004610d21565b61068f565b6101696101ba366004610ccd565b610961565b6000546001600160a01b03165b6040516001600160a01b03909116815260200161014d565b6005546101cc906001600160a01b031681565b610169610205366004610ccd565b610a95565b61014360065481565b610169610221366004610d21565b610ae6565b6007546101cc906001600160a01b031681565b6002546101cc906001600160a01b031681565b6003546101cc906001600160a01b031681565b6004546101cc906001600160a01b031681565b610169610280366004610cfd565b610b6e565b61014360085481565b6003546040517f9dc29fac000000000000000000000000000000000000000000000000000000008152336004820152602481018490526001600160a01b0390911690639dc29fac906044015b6020604051808303816000875af11580156102f9573d6000803e3d6000fd5b505050506040513d601f19601f8201168201806040525081019061031d9190610d3a565b61036e5760405162461bcd60e51b815260206004820152601d60248201527f46756e64204d616e616765723a205472616e73666572206661696c656400000060448201526064015b60405180910390fd5b81600860008282546103809190610d8b565b90915550506007546040517fa9059cbb0000000000000000000000000000000000000000000000000000000081526001600160a01b038381166004830152602482018590529091169063a9059cbb906044016020604051808303816000875af11580156103f1573d6000803e3d6000fd5b505050506040513d601f19601f820116820180604052508101906104159190610d3a565b505050565b6000546001600160a01b031633146104745760405162461bcd60e51b815260206004820181905260248201527f4f776e61626c653a2063616c6c6572206973206e6f7420746865206f776e65726044820152606401610365565b600280547fffffffffffffffffffffffff0000000000000000000000000000000000000000166001600160a01b0392909216919091179055565b6000546001600160a01b031633146105085760405162461bcd60e51b815260206004820181905260248201527f4f776e61626c653a2063616c6c6572206973206e6f7420746865206f776e65726044820152606401610365565b6105126000610c50565b565b6007546040517f23b872dd000000000000000000000000000000000000000000000000000000008152336004820152306024820152604481018490526001600160a01b03909116906323b872dd906064016020604051808303816000875af1158015610584573d6000803e3d6000fd5b505050506040513d601f19601f820116820180604052508101906105a89190610d3a565b6105f45760405162461bcd60e51b815260206004820152601d60248201527f46756e64204d616e616765723a205472616e73666572206661696c65640000006044820152606401610365565b6003546040517f40c10f190000000000000000000000000000000000000000000000000000000081526001600160a01b03838116600483015260248201859052909116906340c10f19906044015b600060405180830381600087803b15801561065c57600080fd5b505af1158015610670573d6000803e3d6000fd5b5050505081600860008282546106869190610da2565b90915550505050565b6005546040517f99c6679d000000000000000000000000000000000000000000000000000000008152600481018390526000916001600160a01b0316906399c6679d90602401602060405180830381865afa1580156106f2573d6000803e3d6000fd5b505050506040513d601f19601f820116820180604052508101906107169190610dba565b6002546040517f673448dd0000000000000000000000000000000000000000000000000000000081526001600160a01b03808416600483015292935091169063673448dd90602401602060405180830381865afa15801561077b573d6000803e3d6000fd5b505050506040513d601f19601f8201168201806040525081019061079f9190610d3a565b1561095d576005546040517fe847c83b000000000000000000000000000000000000000000000000000000008152600481018490526000916001600160a01b03169063e847c83b90602401602060405180830381865afa158015610807573d6000803e3d6000fd5b505050506040513d601f19601f8201168201806040525081019061082b9190610dd7565b6007546040517f70a082310000000000000000000000000000000000000000000000000000000081523060048201529192506000916001600160a01b03909116906370a0823190602401602060405180830381865afa158015610892573d6000803e3d6000fd5b505050506040513d601f19601f820116820180604052508101906108b69190610dd7565b6005549091506001600160a01b0316638c590917858385116108d857846108da565b835b6040517fffffffff0000000000000000000000000000000000000000000000000000000060e085901b168152600481019290925260248201526044016020604051808303816000875af1158015610935573d6000803e3d6000fd5b505050506040513d601f19601f820116820180604052508101906109599190610dd7565b5050505b5050565b6007546040517f23b872dd000000000000000000000000000000000000000000000000000000008152336004820152306024820152604481018490526001600160a01b03909116906323b872dd906064016020604051808303816000875af11580156109d1573d6000803e3d6000fd5b505050506040513d601f19601f820116820180604052508101906109f59190610d3a565b610a415760405162461bcd60e51b815260206004820152601d60248201527f46756e64204d616e616765723a205472616e73666572206661696c65640000006044820152606401610365565b600480546040517f40c10f190000000000000000000000000000000000000000000000000000000081526001600160a01b0384811693820193909352602481018590529116906340c10f1990604401610642565b600480546040517f9dc29fac0000000000000000000000000000000000000000000000000000000081523392810192909252602482018490526001600160a01b031690639dc29fac906044016102da565b6005546040517fdc8de29b000000000000000000000000000000000000000000000000000000008152600481018390526001600160a01b039091169063dc8de29b906024016020604051808303816000875af1158015610b4a573d6000803e3d6000fd5b505050506040513d601f19601f8201168201806040525081019061095d9190610dd7565b6000546001600160a01b03163314610bc85760405162461bcd60e51b815260206004820181905260248201527f4f776e61626c653a2063616c6c6572206973206e6f7420746865206f776e65726044820152606401610365565b6001600160a01b038116610c445760405162461bcd60e51b815260206004820152602660248201527f4f776e61626c653a206e6577206f776e657220697320746865207a65726f206160448201527f64647265737300000000000000000000000000000000000000000000000000006064820152608401610365565b610c4d81610c50565b50565b600080546001600160a01b038381167fffffffffffffffffffffffff0000000000000000000000000000000000000000831681178455604051919092169283917f8be0079c531659141344cd1fd0a4f28419497f9722a3daafe3b4186f6b6457e09190a35050565b6001600160a01b0381168114610c4d57600080fd5b60008060408385031215610ce057600080fd5b823591506020830135610cf281610cb8565b809150509250929050565b600060208284031215610d0f57600080fd5b8135610d1a81610cb8565b9392505050565b600060208284031215610d3357600080fd5b5035919050565b600060208284031215610d4c57600080fd5b81518015158114610d1a57600080fd5b7f4e487b7100000000000000000000000000000000000000000000000000000000600052601160045260246000fd5b600082821015610d9d57610d9d610d5c565b500390565b60008219821115610db557610db5610d5c565b500190565b600060208284031215610dcc57600080fd5b8151610d1a81610cb8565b600060208284031215610de957600080fd5b505191905056fea2646970667358221220252994901d50570a435729cd4f30486474c8c88e71222bc89f36bea5ef3cf1cd64736f6c634300080d003360806040523480156200001157600080fd5b50604051620012bf380380620012bf83398101604081905262000034916200027f565b818160405160200162000049929190620002e9565b60408051808303601f190181528282019091526004825263119050d560e21b6020830152906200007933620000af565b81516200008e906004906020850190620000ff565b508051620000a4906005906020840190620000ff565b50505050506200037e565b600080546001600160a01b038381166001600160a01b0319831681178455604051919092169283917f8be0079c531659141344cd1fd0a4f28419497f9722a3daafe3b4186f6b6457e09190a35050565b8280546200010d9062000342565b90600052602060002090601f0160209004810192826200013157600085556200017c565b82601f106200014c57805160ff19168380011785556200017c565b828001600101855582156200017c579182015b828111156200017c5782518255916020019190600101906200015f565b506200018a9291506200018e565b5090565b5b808211156200018a57600081556001016200018f565b634e487b7160e01b600052604160045260246000fd5b60005b83811015620001d8578181015183820152602001620001be565b83811115620001e8576000848401525b50505050565b600082601f8301126200020057600080fd5b81516001600160401b03808211156200021d576200021d620001a5565b604051601f8301601f19908116603f01168101908282118183101715620002485762000248620001a5565b816040528381528660208588010111156200026257600080fd5b62000275846020830160208901620001bb565b9695505050505050565b600080604083850312156200029357600080fd5b82516001600160401b0380821115620002ab57600080fd5b620002b986838701620001ee565b93506020850151915080821115620002d057600080fd5b50620002df85828601620001ee565b9150509250929050565b60008351620002fd818460208801620001bb565b600160fd1b90830190815283516200031d816001840160208801620001bb565b6b233ab7321026b0b730b3b2b960a11b60019290910191820152600d01949350505050565b600181811c908216806200035757607f821691505b6020821081036200037857634e487b7160e01b600052602260045260246000fd5b50919050565b610f31806200038e6000396000f3fe608060405234801561001057600080fd5b50600436106101005760003560e01c8063715018a611610097578063a457c2d711610066578063a457c2d714610209578063a9059cbb1461021c578063dd62ed3e1461022f578063f2fde38b1461026857600080fd5b8063715018a6146101cb5780638da5cb5b146101d357806395d89b41146101ee5780639dc29fac146101f657600080fd5b8063313ce567116100d3578063313ce5671461016b578063395093511461017a57806340c10f191461018d57806370a08231146101a257600080fd5b806306fdde0314610105578063095ea7b31461012357806318160ddd1461014657806323b872dd14610158575b600080fd5b61010d61027b565b60405161011a9190610d00565b60405180910390f35b610136610131366004610d8f565b61030d565b604051901515815260200161011a565b6003545b60405190815260200161011a565b610136610166366004610db9565b610325565b6040516012815260200161011a565b610136610188366004610d8f565b610349565b6101a061019b366004610d8f565b610388565b005b61014a6101b0366004610df5565b6001600160a01b031660009081526001602052604090205490565b6101a06103f5565b6000546040516001600160a01b03909116815260200161011a565b61010d61045b565b610136610204366004610d8f565b61046a565b610136610217366004610d8f565b610482565b61013661022a366004610d8f565b61052c565b61014a61023d366004610e17565b6001600160a01b03918216600090815260026020908152604080832093909416825291909152205490565b6101a0610276366004610df5565b61053a565b60606004805461028a90610e4a565b80601f01602080910402602001604051908101604052809291908181526020018280546102b690610e4a565b80156103035780601f106102d857610100808354040283529160200191610303565b820191906000526020600020905b8154815290600101906020018083116102e657829003601f168201915b5050505050905090565b60003361031b81858561061c565b5060019392505050565b600033610333858285610775565b61033e858585610825565b506001949350505050565b3360008181526002602090815260408083206001600160a01b038716845290915281205490919061031b9082908690610383908790610ecc565b61061c565b6000546001600160a01b031633146103e75760405162461bcd60e51b815260206004820181905260248201527f4f776e61626c653a2063616c6c6572206973206e6f7420746865206f776e657260448201526064015b60405180910390fd5b6103f18282610a3c565b5050565b6000546001600160a01b0316331461044f5760405162461bcd60e51b815260206004820181905260248201527f4f776e61626c653a2063616c6c6572206973206e6f7420746865206f776e657260448201526064016103de565b6104596000610b1b565b565b60606005805461028a90610e4a565b600033610478848285610775565b61031b8484610b83565b3360008181526002602090815260408083206001600160a01b03871684529091528120549091908381101561051f5760405162461bcd60e51b815260206004820152602560248201527f45524332303a2064656372656173656420616c6c6f77616e63652062656c6f7760448201527f207a65726f00000000000000000000000000000000000000000000000000000060648201526084016103de565b61033e828686840361061c565b60003361031b818585610825565b6000546001600160a01b031633146105945760405162461bcd60e51b815260206004820181905260248201527f4f776e61626c653a2063616c6c6572206973206e6f7420746865206f776e657260448201526064016103de565b6001600160a01b0381166106105760405162461bcd60e51b815260206004820152602660248201527f4f776e61626c653a206e6577206f776e657220697320746865207a65726f206160448201527f646472657373000000000000000000000000000000000000000000000000000060648201526084016103de565b61061981610b1b565b50565b6001600160a01b0383166106975760405162461bcd60e51b8152602060048201526024808201527f45524332303a20617070726f76652066726f6d20746865207a65726f2061646460448201527f726573730000000000000000000000000000000000000000000000000000000060648201526084016103de565b6001600160a01b0382166107135760405162461bcd60e51b815260206004820152602260248201527f45524332303a20617070726f766520746f20746865207a65726f20616464726560448201527f737300000000000000000000000000000000000000000000000000000000000060648201526084016103de565b6001600160a01b0383811660008181526002602090815260408083209487168084529482529182902085905590518481527f8c5be1e5ebec7d5bd14f71427d1e84f3dd0314c0f7b2291e5b200ac8c7c3b92591015b60405180910390a3505050565b6001600160a01b038381166000908152600260209081526040808320938616835292905220547fffffffffffffffffffffffffffffffffffffffffffffffffffffffffffffffff811461081f57818110156108125760405162461bcd60e51b815260206004820152601d60248201527f45524332303a20696e73756666696369656e7420616c6c6f77616e636500000060448201526064016103de565b61081f848484840361061c565b50505050565b6001600160a01b0383166108a15760405162461bcd60e51b815260206004820152602560248201527f45524332303a207472616e736665722066726f6d20746865207a65726f20616460448201527f647265737300000000000000000000000000000000000000000000000000000060648201526084016103de565b6001600160a01b03821661091d5760405162461bcd60e51b815260206004820152602360248201527f45524332303a207472616e7366657220746f20746865207a65726f206164647260448201527f657373000000000000000000000000000000000000000000000000000000000060648201526084016103de565b6001600160a01b038316600090815260016020526040902054818110156109ac5760405162461bcd60e51b815260206004820152602660248201527f45524332303a207472616e7366657220616d6f756e742065786365656473206260448201527f616c616e6365000000000000000000000000000000000000000000000000000060648201526084016103de565b6001600160a01b038085166000908152600160205260408082208585039055918516815290812080548492906109e3908490610ecc565b92505081905550826001600160a01b0316846001600160a01b03167fddf252ad1be2c89b69c2b068fc378daa952ba7f163c4a11628f55a4df523b3ef84604051610a2f91815260200190565b60405180910390a361081f565b6001600160a01b038216610a925760405162461bcd60e51b815260206004820152601f60248201527f45524332303a206d696e7420746f20746865207a65726f20616464726573730060448201526064016103de565b8060036000828254610aa49190610ecc565b90915550506001600160a01b03821660009081526001602052604081208054839290610ad1908490610ecc565b90915550506040518181526001600160a01b038316906000907fddf252ad1be2c89b69c2b068fc378daa952ba7f163c4a11628f55a4df523b3ef9060200160405180910390a35050565b600080546001600160a01b038381167fffffffffffffffffffffffff0000000000000000000000000000000000000000831681178455604051919092169283917f8be0079c531659141344cd1fd0a4f28419497f9722a3daafe3b4186f6b6457e09190a35050565b6001600160a01b038216610bff5760405162461bcd60e51b815260206004820152602160248201527f45524332303a206275726e2066726f6d20746865207a65726f2061646472657360448201527f730000000000000000000000000000000000000000000000000000000000000060648201526084016103de565b6001600160a01b03821660009081526001602052604090205481811015610c8e5760405162461bcd60e51b815260206004820152602260248201527f45524332303a206275726e20616d6f756e7420657863656564732062616c616e60448201527f636500000000000000000000000000000000000000000000000000000000000060648201526084016103de565b6001600160a01b0383166000908152600160205260408120838303905560038054849290610cbd908490610ee4565b90915550506040518281526000906001600160a01b038516907fddf252ad1be2c89b69c2b068fc378daa952ba7f163c4a11628f55a4df523b3ef90602001610768565b600060208083528351808285015260005b81811015610d2d57858101830151858201604001528201610d11565b81811115610d3f576000604083870101525b50601f017fffffffffffffffffffffffffffffffffffffffffffffffffffffffffffffffe016929092016040019392505050565b80356001600160a01b0381168114610d8a57600080fd5b919050565b60008060408385031215610da257600080fd5b610dab83610d73565b946020939093013593505050565b600080600060608486031215610dce57600080fd5b610dd784610d73565b9250610de560208501610d73565b9150604084013590509250925092565b600060208284031215610e0757600080fd5b610e1082610d73565b9392505050565b60008060408385031215610e2a57600080fd5b610e3383610d73565b9150610e4160208401610d73565b90509250929050565b600181811c90821680610e5e57607f821691505b602082108103610e97577f4e487b7100000000000000000000000000000000000000000000000000000000600052602260045260246000fd5b50919050565b7f4e487b7100000000000000000000000000000000000000000000000000000000600052601160045260246000fd5b60008219821115610edf57610edf610e9d565b500190565b600082821015610ef657610ef6610e9d565b50039056fea26469706673582212201fae7c2d5ca2bab8e3ec12f527900b0dc5ce0c3ea44d5f819ad97694931801ea64736f6c634300080d0033",
  "devdoc": {
    "kind": "dev",
    "methods": {
      "owner()": {
        "details": "Returns the address of the current owner."
      },
      "renounceOwnership()": {
        "details": "Leaves the contract without owner. It will not be possible to call `onlyOwner` functions anymore. Can only be called by the current owner. NOTE: Renouncing ownership will leave the contract without an owner, thereby removing any functionality that is only available to the owner."
      },
      "transferOwnership(address)": {
        "details": "Transfers ownership of the contract to a new account (`newOwner`). Can only be called by the current owner."
      }
    },
    "version": 1
  },
  "userdoc": {
    "kind": "user",
    "methods": {},
    "version": 1
  },
  "storageLayout": {
    "storage": [
      {
        "astId": 12677,
        "contract": "src/FundManagers/FundManager.sol:FundManager",
        "label": "_owner",
        "offset": 0,
        "slot": "0",
        "type": "t_address"
      },
      {
        "astId": 16421,
        "contract": "src/FundManagers/FundManager.sol:FundManager",
        "label": "seniorApy",
        "offset": 0,
        "slot": "1",
        "type": "t_uint256"
      },
      {
        "astId": 16424,
        "contract": "src/FundManagers/FundManager.sol:FundManager",
        "label": "delegator",
        "offset": 0,
        "slot": "2",
        "type": "t_contract(Delegator)16405"
      },
      {
        "astId": 16427,
        "contract": "src/FundManagers/FundManager.sol:FundManager",
        "label": "junior",
        "offset": 0,
        "slot": "3",
        "type": "t_contract(FundTranche)17097"
      },
      {
        "astId": 16430,
        "contract": "src/FundManagers/FundManager.sol:FundManager",
        "label": "senior",
        "offset": 0,
        "slot": "4",
        "type": "t_contract(FundTranche)17097"
      },
      {
        "astId": 16433,
        "contract": "src/FundManagers/FundManager.sol:FundManager",
        "label": "loanFactory",
        "offset": 0,
        "slot": "5",
        "type": "t_contract(MicroLoanFactory)16208"
      },
      {
        "astId": 16435,
        "contract": "src/FundManagers/FundManager.sol:FundManager",
        "label": "riskThreshold",
        "offset": 0,
        "slot": "6",
        "type": "t_uint256"
      },
      {
        "astId": 16438,
        "contract": "src/FundManagers/FundManager.sol:FundManager",
        "label": "depositToken",
        "offset": 0,
        "slot": "7",
        "type": "t_contract(IERC20)13438"
      },
      {
        "astId": 16440,
        "contract": "src/FundManagers/FundManager.sol:FundManager",
        "label": "totalDeposited",
        "offset": 0,
        "slot": "8",
        "type": "t_uint256"
      }
    ],
    "types": {
      "t_address": {
        "encoding": "inplace",
        "label": "address",
        "numberOfBytes": "20"
      },
      "t_contract(Delegator)16405": {
        "encoding": "inplace",
        "label": "contract Delegator",
        "numberOfBytes": "20"
      },
      "t_contract(FundTranche)17097": {
        "encoding": "inplace",
        "label": "contract FundTranche",
        "numberOfBytes": "20"
      },
      "t_contract(IERC20)13438": {
        "encoding": "inplace",
        "label": "contract IERC20",
        "numberOfBytes": "20"
      },
      "t_contract(MicroLoanFactory)16208": {
        "encoding": "inplace",
        "label": "contract MicroLoanFactory",
        "numberOfBytes": "20"
      },
      "t_uint256": {
        "encoding": "inplace",
        "label": "uint256",
        "numberOfBytes": "32"
      }
    }
  }
}