{
  "address": "0xD7E8dBBf7DD6689ed74cBAAF72859e4631529b0E",
  "abi": [
    {
      "inputs": [],
      "stateMutability": "nonpayable",
      "type": "constructor"
    },
    {
      "anonymous": false,
      "inputs": [
        {
          "indexed": true,
          "internalType": "uint256",
          "name": "loan",
          "type": "uint256"
        },
        {
          "indexed": false,
          "internalType": "uint256",
          "name": "newRate",
          "type": "uint256"
        }
      ],
      "name": "ChangeRate",
      "type": "event"
    },
    {
      "anonymous": false,
      "inputs": [
        {
          "indexed": true,
          "internalType": "uint256",
          "name": "loan",
          "type": "uint256"
        },
        {
          "indexed": false,
          "internalType": "uint256",
          "name": "currencyAmount",
          "type": "uint256"
        }
      ],
      "name": "DecreaseDebt",
      "type": "event"
    },
    {
      "anonymous": false,
      "inputs": [
        {
          "indexed": true,
          "internalType": "address",
          "name": "usr",
          "type": "address"
        }
      ],
      "name": "Deny",
      "type": "event"
    },
    {
      "anonymous": false,
      "inputs": [
        {
          "indexed": true,
          "internalType": "bytes32",
          "name": "what",
          "type": "bytes32"
        },
        {
          "indexed": false,
          "internalType": "uint256",
          "name": "rate",
          "type": "uint256"
        },
        {
          "indexed": false,
          "internalType": "uint256",
          "name": "value",
          "type": "uint256"
        }
      ],
      "name": "File",
      "type": "event"
    },
    {
      "anonymous": false,
      "inputs": [
        {
          "indexed": true,
          "internalType": "uint256",
          "name": "loan",
          "type": "uint256"
        },
        {
          "indexed": false,
          "internalType": "uint256",
          "name": "currencyAmount",
          "type": "uint256"
        }
      ],
      "name": "IncreaseDebt",
      "type": "event"
    },
    {
      "anonymous": false,
      "inputs": [
        {
          "indexed": true,
          "internalType": "address",
          "name": "usr",
          "type": "address"
        }
      ],
      "name": "Rely",
      "type": "event"
    },
    {
      "anonymous": false,
      "inputs": [
        {
          "indexed": true,
          "internalType": "uint256",
          "name": "loan",
          "type": "uint256"
        },
        {
          "indexed": false,
          "internalType": "uint256",
          "name": "rate",
          "type": "uint256"
        }
      ],
      "name": "SetRate",
      "type": "event"
    },
    {
      "inputs": [
        {
          "internalType": "uint256",
          "name": "loan",
          "type": "uint256"
        }
      ],
      "name": "accrue",
      "outputs": [],
      "stateMutability": "nonpayable",
      "type": "function"
    },
    {
      "inputs": [
        {
          "internalType": "uint256",
          "name": "loan",
          "type": "uint256"
        },
        {
          "internalType": "uint256",
          "name": "newRate",
          "type": "uint256"
        }
      ],
      "name": "changeRate",
      "outputs": [],
      "stateMutability": "nonpayable",
      "type": "function"
    },
    {
      "inputs": [
        {
          "internalType": "uint256",
          "name": "interestBearingAmount",
          "type": "uint256"
        },
        {
          "internalType": "uint256",
          "name": "ratePerSecond",
          "type": "uint256"
        },
        {
          "internalType": "uint256",
          "name": "lastUpdated",
          "type": "uint256"
        }
      ],
      "name": "chargeInterest",
      "outputs": [
        {
          "internalType": "uint256",
          "name": "",
          "type": "uint256"
        }
      ],
      "stateMutability": "view",
      "type": "function"
    },
    {
      "inputs": [
        {
          "internalType": "uint256",
          "name": "chi",
          "type": "uint256"
        },
        {
          "internalType": "uint256",
          "name": "ratePerSecond",
          "type": "uint256"
        },
        {
          "internalType": "uint256",
          "name": "lastUpdated",
          "type": "uint256"
        },
        {
          "internalType": "uint256",
          "name": "pie",
          "type": "uint256"
        }
      ],
      "name": "compounding",
      "outputs": [
        {
          "internalType": "uint256",
          "name": "",
          "type": "uint256"
        },
        {
          "internalType": "uint256",
          "name": "",
          "type": "uint256"
        }
      ],
      "stateMutability": "view",
      "type": "function"
    },
    {
      "inputs": [
        {
          "internalType": "uint256",
          "name": "loan",
          "type": "uint256"
        }
      ],
      "name": "debt",
      "outputs": [
        {
          "internalType": "uint256",
          "name": "",
          "type": "uint256"
        }
      ],
      "stateMutability": "view",
      "type": "function"
    },
    {
      "inputs": [
        {
          "internalType": "uint256",
          "name": "loan",
          "type": "uint256"
        },
        {
          "internalType": "uint256",
          "name": "currencyAmount",
          "type": "uint256"
        }
      ],
      "name": "decDebt",
      "outputs": [],
      "stateMutability": "nonpayable",
      "type": "function"
    },
    {
      "inputs": [
        {
          "internalType": "address",
          "name": "usr",
          "type": "address"
        }
      ],
      "name": "deny",
      "outputs": [],
      "stateMutability": "nonpayable",
      "type": "function"
    },
    {
      "inputs": [
        {
          "internalType": "uint256",
          "name": "rate",
          "type": "uint256"
        }
      ],
      "name": "drip",
      "outputs": [],
      "stateMutability": "nonpayable",
      "type": "function"
    },
    {
      "inputs": [
        {
          "internalType": "bytes32",
          "name": "what",
          "type": "bytes32"
        },
        {
          "internalType": "uint256",
          "name": "rate",
          "type": "uint256"
        },
        {
          "internalType": "uint256",
          "name": "value",
          "type": "uint256"
        }
      ],
      "name": "file",
      "outputs": [],
      "stateMutability": "nonpayable",
      "type": "function"
    },
    {
      "inputs": [
        {
          "internalType": "uint256",
          "name": "loan",
          "type": "uint256"
        },
        {
          "internalType": "uint256",
          "name": "currencyAmount",
          "type": "uint256"
        }
      ],
      "name": "incDebt",
      "outputs": [],
      "stateMutability": "nonpayable",
      "type": "function"
    },
    {
      "inputs": [
        {
          "internalType": "uint256",
          "name": "",
          "type": "uint256"
        }
      ],
      "name": "loanRates",
      "outputs": [
        {
          "internalType": "uint256",
          "name": "",
          "type": "uint256"
        }
      ],
      "stateMutability": "view",
      "type": "function"
    },
    {
      "inputs": [
        {
          "internalType": "uint256",
          "name": "loan",
          "type": "uint256"
        },
        {
          "internalType": "uint256",
          "name": "ratePerSecond",
          "type": "uint256"
        },
        {
          "internalType": "uint256",
          "name": "fixedRate",
          "type": "uint256"
        }
      ],
      "name": "newLoan",
      "outputs": [],
      "stateMutability": "nonpayable",
      "type": "function"
    },
    {
      "inputs": [
        {
          "internalType": "uint256",
          "name": "",
          "type": "uint256"
        }
      ],
      "name": "pie",
      "outputs": [
        {
          "internalType": "uint256",
          "name": "",
          "type": "uint256"
        }
      ],
      "stateMutability": "view",
      "type": "function"
    },
    {
      "inputs": [
        {
          "internalType": "uint256",
          "name": "rate",
          "type": "uint256"
        }
      ],
      "name": "rateDebt",
      "outputs": [
        {
          "internalType": "uint256",
          "name": "",
          "type": "uint256"
        }
      ],
      "stateMutability": "view",
      "type": "function"
    },
    {
      "inputs": [
        {
          "internalType": "uint256",
          "name": "",
          "type": "uint256"
        }
      ],
      "name": "rates",
      "outputs": [
        {
          "internalType": "uint256",
          "name": "pie",
          "type": "uint256"
        },
        {
          "internalType": "uint256",
          "name": "chi",
          "type": "uint256"
        },
        {
          "internalType": "uint256",
          "name": "ratePerSecond",
          "type": "uint256"
        },
        {
          "internalType": "uint48",
          "name": "lastUpdated",
          "type": "uint48"
        },
        {
          "internalType": "uint256",
          "name": "fixedRate",
          "type": "uint256"
        }
      ],
      "stateMutability": "view",
      "type": "function"
    },
    {
      "inputs": [
        {
          "internalType": "uint256",
          "name": "x",
          "type": "uint256"
        },
        {
          "internalType": "uint256",
          "name": "y",
          "type": "uint256"
        }
      ],
      "name": "rdiv",
      "outputs": [
        {
          "internalType": "uint256",
          "name": "z",
          "type": "uint256"
        }
      ],
      "stateMutability": "pure",
      "type": "function"
    },
    {
      "inputs": [
        {
          "internalType": "address",
          "name": "usr",
          "type": "address"
        }
      ],
      "name": "rely",
      "outputs": [],
      "stateMutability": "nonpayable",
      "type": "function"
    },
    {
      "inputs": [
        {
          "internalType": "uint256",
          "name": "x",
          "type": "uint256"
        },
        {
          "internalType": "uint256",
          "name": "y",
          "type": "uint256"
        }
      ],
      "name": "rmul",
      "outputs": [
        {
          "internalType": "uint256",
          "name": "z",
          "type": "uint256"
        }
      ],
      "stateMutability": "pure",
      "type": "function"
    },
    {
      "inputs": [
        {
          "internalType": "uint256",
          "name": "x",
          "type": "uint256"
        },
        {
          "internalType": "uint256",
          "name": "n",
          "type": "uint256"
        },
        {
          "internalType": "uint256",
          "name": "base",
          "type": "uint256"
        }
      ],
      "name": "rpow",
      "outputs": [
        {
          "internalType": "uint256",
          "name": "z",
          "type": "uint256"
        }
      ],
      "stateMutability": "pure",
      "type": "function"
    },
    {
      "inputs": [
        {
          "internalType": "uint256",
          "name": "x",
          "type": "uint256"
        },
        {
          "internalType": "uint256",
          "name": "y",
          "type": "uint256"
        }
      ],
      "name": "safeAdd",
      "outputs": [
        {
          "internalType": "uint256",
          "name": "z",
          "type": "uint256"
        }
      ],
      "stateMutability": "pure",
      "type": "function"
    },
    {
      "inputs": [
        {
          "internalType": "uint256",
          "name": "x",
          "type": "uint256"
        },
        {
          "internalType": "uint256",
          "name": "y",
          "type": "uint256"
        }
      ],
      "name": "safeDiv",
      "outputs": [
        {
          "internalType": "uint256",
          "name": "z",
          "type": "uint256"
        }
      ],
      "stateMutability": "pure",
      "type": "function"
    },
    {
      "inputs": [
        {
          "internalType": "uint256",
          "name": "x",
          "type": "uint256"
        },
        {
          "internalType": "uint256",
          "name": "y",
          "type": "uint256"
        }
      ],
      "name": "safeMul",
      "outputs": [
        {
          "internalType": "uint256",
          "name": "z",
          "type": "uint256"
        }
      ],
      "stateMutability": "pure",
      "type": "function"
    },
    {
      "inputs": [
        {
          "internalType": "uint256",
          "name": "x",
          "type": "uint256"
        },
        {
          "internalType": "uint256",
          "name": "y",
          "type": "uint256"
        }
      ],
      "name": "safeSub",
      "outputs": [
        {
          "internalType": "uint256",
          "name": "z",
          "type": "uint256"
        }
      ],
      "stateMutability": "pure",
      "type": "function"
    },
    {
      "inputs": [
        {
          "internalType": "uint256",
          "name": "loan",
          "type": "uint256"
        },
        {
          "internalType": "uint256",
          "name": "rate",
          "type": "uint256"
        }
      ],
      "name": "setRate",
      "outputs": [],
      "stateMutability": "nonpayable",
      "type": "function"
    },
    {
      "inputs": [
        {
          "internalType": "uint256",
          "name": "chi",
          "type": "uint256"
        },
        {
          "internalType": "uint256",
          "name": "pie",
          "type": "uint256"
        }
      ],
      "name": "toAmount",
      "outputs": [
        {
          "internalType": "uint256",
          "name": "",
          "type": "uint256"
        }
      ],
      "stateMutability": "pure",
      "type": "function"
    },
    {
      "inputs": [
        {
          "internalType": "uint256",
          "name": "chi",
          "type": "uint256"
        },
        {
          "internalType": "uint256",
          "name": "amount",
          "type": "uint256"
        }
      ],
      "name": "toPie",
      "outputs": [
        {
          "internalType": "uint256",
          "name": "",
          "type": "uint256"
        }
      ],
      "stateMutability": "pure",
      "type": "function"
    },
    {
      "inputs": [
        {
          "internalType": "address",
          "name": "",
          "type": "address"
        }
      ],
      "name": "wards",
      "outputs": [
        {
          "internalType": "uint256",
          "name": "",
          "type": "uint256"
        }
      ],
      "stateMutability": "view",
      "type": "function"
    }
  ],
  "transactionHash": "0x7aea29894b93cafb91f37455938192487176ee959cb77e765ad59612ea14ce94",
  "args": [],
  "numDeployments": 1,
  "solcInputHash": "e4ae6a94b061cbc6d9bd3f2b4079ad9c",
  "bytecode": "0x608060405234801561001057600080fd5b506b033b2e3c9fd0803ce80000007fa6eef7e35abe7026729641147f7915573c7e97b47efa546f5f6e3230263bcb4a8190557fa6eef7e35abe7026729641147f7915573c7e97b47efa546f5f6e3230263bcb4b553360008181526020819052604080822060019055517fdd0e34038ac38b2a1ce960229778ac48a8719bc900b6c4f8d0475c6e8b385a609190a26116ee806100ac6000396000f3fe608060405234801561001057600080fd5b50600436106101b95760003560e01c8063744f4cf6116100f9578063b5931f7c11610097578063d7affae311610071578063d7affae3146103af578063dd418ae2146103c2578063e4064a7714610439578063e6cb90131461046157600080fd5b8063b5931f7c14610369578063bf353dbb1461037c578063d05c78da1461039c57600080fd5b80639c52a7f1116100d35780639c52a7f11461031d5780639e1aaae614610330578063a293d1e814610343578063a883b0c41461035657600080fd5b8063744f4cf6146102d757806386c1762a146102ea5780639717411d146102fd57600080fd5b806328a7996f1161016657806358326b7a1161014057806358326b7a1461028b57806365fae35e1461029e57806367457022146102b157806367b870af146102c457600080fd5b806328a7996f1461025257806329a8f4f81461026557806346df2ccb1461027857600080fd5b80631e0029c8116101975780631e0029c8146102195780631ec9f27b1461022c5780632047a2671461023f57600080fd5b806301aa8a6e146101be578063071ffb3c146101f15780630e2286d314610206575b600080fd5b6101de6101cc366004611513565b60036020526000908152604090205481565b6040519081526020015b60405180910390f35b6102046101ff36600461152c565b610474565b005b6101de61021436600461152c565b610628565b6101de610227366004611513565b6106af565b61020461023a36600461154e565b61073b565b61020461024d36600461152c565b61080b565b6101de61026036600461152c565b610985565b6101de61027336600461154e565b610997565b61020461028636600461152c565b6109b7565b610204610299366004611513565b610b23565b6102046102ac36600461157a565b610bc6565b6101de6102bf36600461152c565b610c77565b6101de6102d236600461154e565b610c90565b6102046102e5366004611513565b610d4e565b6101de6102f8366004611513565b610d66565b6101de61030b366004611513565b60026020526000908152604090205481565b61020461032b36600461157a565b610dd2565b6101de61033e36600461152c565b610e82565b6101de61035136600461152c565b610e8e565b61020461036436600461152c565b610eec565b6101de61037736600461152c565b6110c4565b6101de61038a36600461157a565b60006020819052908152604090205481565b6101de6103aa36600461152c565b6110d0565b6102046103bd36600461154e565b611140565b6104096103d0366004611513565b6001602081905260009182526040909120805491810154600282015460038301546004909301549192909165ffffffffffff9091169085565b6040805195865260208601949094529284019190915265ffffffffffff166060830152608082015260a0016101e8565b61044c6104473660046115b0565b611375565b604080519283526020830191909152016101e8565b6101de61046f36600461152c565b61140b565b336000908152602081905260409020546001146104d85760405162461bcd60e51b815260206004820152600e60248201527f6e6f742d617574686f72697a656400000000000000000000000000000000000060448201526064015b60405180910390fd5b6000828152600360208181526040808420548085526001909252909220015465ffffffffffff16421461054d5760405162461bcd60e51b815260206004820152601660248201527f726174652d67726f75702d6e6f742d757064617465640000000000000000000060448201526064016104cf565b60008181526001602052604090206004015461056a908390610c77565b6105749083611611565b600082815260016020819052604082200154919350906105949084610985565b6000858152600260205260409020549091506105b1908290611611565b6000858152600260209081526040808320939093558482526001905220546105da908290611611565b600083815260016020908152604091829020929092555184815285917f4656f63d6d86ffd6679877563f6832dff83d72eb09acf31f29018beaad47ef0e91015b60405180910390a250505050565b60008082116106795760405162461bcd60e51b815260206004820152601060248201527f6469766973696f6e206279207a65726f0000000000000000000000000000000060448201526064016104cf565b8161069e610693856b033b2e3c9fd0803ce80000006110d0565b61046f600286611629565b6106a89190611629565b9392505050565b60008181526003602081815260408084205480855260019283905290842091820154919092015465ffffffffffff164210610719576000828152600160208190526040909120908101546002820154600390920154610716929065ffffffffffff16610997565b90505b600084815260026020526040902054610733908290610e82565b949350505050565b3360009081526020819052604090205460011461079a5760405162461bcd60e51b815260206004820152600e60248201527f6e6f742d617574686f72697a656400000000000000000000000000000000000060448201526064016104cf565b60008381526001602081815260408084206b033b2e3c9fd0803ce8000000938101849055600380820180547fffffffffffffffffffffffffffffffffffffffffffffffffffff000000000000164265ffffffffffff1617905560028201949094556004019490945552209190915550565b3360009081526020819052604090205460011461086a5760405162461bcd60e51b815260206004820152600e60248201527f6e6f742d617574686f72697a656400000000000000000000000000000000000060448201526064016104cf565b6000828152600360208181526040808420548085526001909252909220015465ffffffffffff1642146108df5760405162461bcd60e51b815260206004820152601660248201527f726174652d67726f75702d6e6f742d757064617465640000000000000000000060448201526064016104cf565b6000818152600160208190526040822001546108fb9084610985565b600085815260026020526040902054909150610918908290611611565b600085815260026020908152604080832093909355848252600190522054610941908290611611565b600083815260016020908152604091829020929092555184815285917fb8b26d9635bdf66575907fb44682641f476b48fb70ad5c2a630908bfcddf2143910161061a565b60006106a88284611469565b92915050565b60008142106109af576109ac848484426114df565b93505b509192915050565b33600090815260208190526040902054600114610a165760405162461bcd60e51b815260206004820152600e60248201527f6e6f742d617574686f72697a656400000000000000000000000000000000000060448201526064016104cf565b60008281526002602052604090205415610a725760405162461bcd60e51b815260206004820152600d60248201527f6e6f6e2d7a65726f2d646562740000000000000000000000000000000000000060448201526064016104cf565b6000818152600160208190526040822001549003610ad25760405162461bcd60e51b815260206004820152601260248201527f726174652d67726f75702d6e6f742d736574000000000000000000000000000060448201526064016104cf565b600082815260036020526040908190208290555182907f3a8f7e78fe36c54b4f888a309efa91eba128acb04cc1c2ffa0e5c4db7b4a878590610b179084815260200190565b60405180910390a25050565b60008181526001602052604090206003015465ffffffffffff164210610bc3576000818152600160208190526040822090810154600282015460038301549254610b759365ffffffffffff1690611375565b5060008381526001602081905260409091209081019190915560030180547fffffffffffffffffffffffffffffffffffffffffffffffffffff000000000000164265ffffffffffff16179055505b50565b33600090815260208190526040902054600114610c255760405162461bcd60e51b815260206004820152600e60248201527f6e6f742d617574686f72697a656400000000000000000000000000000000000060448201526064016104cf565b73ffffffffffffffffffffffffffffffffffffffff811660008181526020819052604080822060019055517fdd0e34038ac38b2a1ce960229778ac48a8719bc900b6c4f8d0475c6e8b385a609190a250565b60006b033b2e3c9fd0803ce800000061069e84846110d0565b6000838015610d3057600184168015610cab57859250610caf565b8392505b50600283046002850494505b8415610d2a578586028687820414610cd257600080fd5b81810181811015610ce257600080fd5b8590049650506001851615610d1f578583028387820414158715151615610d0857600080fd5b81810181811015610d1857600080fd5b8590049350505b600285049450610cbb565b50610d46565b838015610d405760009250610d44565b8392505b505b509392505050565b600081815260036020526040902054610bc390610b23565b6000818152600160208190526040822090810154815460039092015490919065ffffffffffff164210610dc8576000848152600160208190526040909120908101546002820154600390920154610dc5929065ffffffffffff16610997565b91505b6107338282610e82565b33600090815260208190526040902054600114610e315760405162461bcd60e51b815260206004820152600e60248201527f6e6f742d617574686f72697a656400000000000000000000000000000000000060448201526064016104cf565b73ffffffffffffffffffffffffffffffffffffffff8116600081815260208190526040808220829055517f184450df2e323acec0ed3b5c7531b81f9b4cdef7914dfd4c0a4317416bb5251b9190a250565b60006106a88284610c77565b600082610e9b8382611664565b91508111156109915760405162461bcd60e51b815260206004820152600f60248201527f736166652d7375622d6661696c6564000000000000000000000000000000000060448201526064016104cf565b33600090815260208190526040902054600114610f4b5760405162461bcd60e51b815260206004820152600e60248201527f6e6f742d617574686f72697a656400000000000000000000000000000000000060448201526064016104cf565b6000818152600160208190526040822001549003610fab5760405162461bcd60e51b815260206004820152601260248201527f726174652d67726f75702d6e6f742d736574000000000000000000000000000060448201526064016104cf565b600082815260036020526040902054610fc381610b23565b610fcc82610b23565b60008381526002602090815260408083205484845260019283905290832090910154909190610ffb9083610e82565b600084815260016020526040902054909150611018908390611611565b600084815260016020819052604080832093909355868252919020015461103f9082610985565b600086815260026020908152604080832084905587835260019091529020546110689190611611565b6000858152600160209081526040808320939093558782526003815290829020869055905185815286917fe1033ddc4775544ccda3ab7eb50208593822f29f4e10be3f6b4616eeae5d810c910160405180910390a25050505050565b60006106a88284611629565b60008115806110f4575082826110e6818361167b565b92506110f29083611629565b145b6109915760405162461bcd60e51b815260206004820152600f60248201527f736166652d6d756c2d6661696c6564000000000000000000000000000000000060448201526064016104cf565b3360009081526020819052604090205460011461119f5760405162461bcd60e51b815260206004820152600e60248201527f6e6f742d617574686f72697a656400000000000000000000000000000000000060448201526064016104cf565b827f7261746500000000000000000000000000000000000000000000000000000000036112ad57806000036112165760405162461bcd60e51b815260206004820152601c60248201527f726174652d7065722d7365636f6e642d63616e2d6e6f742d62652d300000000060448201526064016104cf565b600082815260016020819052604082200154900361128b5760008281526001602081905260409091206b033b2e3c9fd0803ce80000009181019190915560030180547fffffffffffffffffffffffffffffffffffffffffffffffffffff000000000000164265ffffffffffff16179055611294565b61129482610b23565b6000828152600160205260409020600201819055611335565b827f6669786564526174650000000000000000000000000000000000000000000000036112ed576000828152600160205260409020600401819055611335565b60405162461bcd60e51b815260206004820152601160248201527f756e6b6e6f776e20706172616d6574657200000000000000000000000000000060448201526064016104cf565b604080518381526020810183905284917f52e8bd81e873a93db0176f662695e3c80268d53323abc4a4d0fd0676be459d17910160405180910390a2505050565b600080834210156113c85760405162461bcd60e51b815260206004820152601e60248201527f74696e6c616b652d6d6174682f696e76616c69642d74696d657374616d70000060448201526064016104cf565b856000036113d557600080fd5b60006113e3878787426114df565b9050806113fd6113f38387610c77565b6103518a88610c77565b925092505094509492505050565b6000826114188382611611565b91508110156109915760405162461bcd60e51b815260206004820152600f60248201527f736166652d6164642d6661696c6564000000000000000000000000000000000060448201526064016104cf565b60008082116114ba5760405162461bcd60e51b815260206004820152601060248201527f6469766973696f6e206279207a65726f0000000000000000000000000000000060448201526064016104cf565b8161069e6114d4856b033b2e3c9fd0803ce80000006110d0565b61046f856001610e8e565b600061150a611504856114f28686611664565b6b033b2e3c9fd0803ce8000000610c90565b86610c77565b95945050505050565b60006020828403121561152557600080fd5b5035919050565b6000806040838503121561153f57600080fd5b50508035926020909101359150565b60008060006060848603121561156357600080fd5b505081359360208301359350604090920135919050565b60006020828403121561158c57600080fd5b813573ffffffffffffffffffffffffffffffffffffffff811681146106a857600080fd5b600080600080608085870312156115c657600080fd5b5050823594602084013594506040840135936060013592509050565b7f4e487b7100000000000000000000000000000000000000000000000000000000600052601160045260246000fd5b60008219821115611624576116246115e2565b500190565b60008261165f577f4e487b7100000000000000000000000000000000000000000000000000000000600052601260045260246000fd5b500490565b600082821015611676576116766115e2565b500390565b6000817fffffffffffffffffffffffffffffffffffffffffffffffffffffffffffffffff04831182151516156116b3576116b36115e2565b50029056fea2646970667358221220041dff0876c4e6f721e419c20abe13760f9c417714111b9515cddc78ac97542164736f6c634300080d0033",
  "devdoc": {
    "kind": "dev",
    "methods": {},
    "version": 1
  },
  "userdoc": {
    "kind": "user",
    "methods": {},
    "version": 1
  },
  "storageLayout": {
    "storage": [
      {
        "astId": 5,
        "contract": "src/Interest/InterestModule.sol:InterestModule",
        "label": "wards",
        "offset": 0,
        "slot": "0",
        "type": "t_mapping(t_address,t_uint256)"
      },
      {
        "astId": 17121,
        "contract": "src/Interest/InterestModule.sol:InterestModule",
        "label": "rates",
        "offset": 0,
        "slot": "1",
        "type": "t_mapping(t_uint256,t_struct(Rate)17116_storage)"
      },
      {
        "astId": 17125,
        "contract": "src/Interest/InterestModule.sol:InterestModule",
        "label": "pie",
        "offset": 0,
        "slot": "2",
        "type": "t_mapping(t_uint256,t_uint256)"
      },
      {
        "astId": 17129,
        "contract": "src/Interest/InterestModule.sol:InterestModule",
        "label": "loanRates",
        "offset": 0,
        "slot": "3",
        "type": "t_mapping(t_uint256,t_uint256)"
      }
    ],
    "types": {
      "t_address": {
        "encoding": "inplace",
        "label": "address",
        "numberOfBytes": "20"
      },
      "t_mapping(t_address,t_uint256)": {
        "encoding": "mapping",
        "key": "t_address",
        "label": "mapping(address => uint256)",
        "numberOfBytes": "32",
        "value": "t_uint256"
      },
      "t_mapping(t_uint256,t_struct(Rate)17116_storage)": {
        "encoding": "mapping",
        "key": "t_uint256",
        "label": "mapping(uint256 => struct InterestModule.Rate)",
        "numberOfBytes": "32",
        "value": "t_struct(Rate)17116_storage"
      },
      "t_mapping(t_uint256,t_uint256)": {
        "encoding": "mapping",
        "key": "t_uint256",
        "label": "mapping(uint256 => uint256)",
        "numberOfBytes": "32",
        "value": "t_uint256"
      },
      "t_struct(Rate)17116_storage": {
        "encoding": "inplace",
        "label": "struct InterestModule.Rate",
        "members": [
          {
            "astId": 17107,
            "contract": "src/Interest/InterestModule.sol:InterestModule",
            "label": "pie",
            "offset": 0,
            "slot": "0",
            "type": "t_uint256"
          },
          {
            "astId": 17109,
            "contract": "src/Interest/InterestModule.sol:InterestModule",
            "label": "chi",
            "offset": 0,
            "slot": "1",
            "type": "t_uint256"
          },
          {
            "astId": 17111,
            "contract": "src/Interest/InterestModule.sol:InterestModule",
            "label": "ratePerSecond",
            "offset": 0,
            "slot": "2",
            "type": "t_uint256"
          },
          {
            "astId": 17113,
            "contract": "src/Interest/InterestModule.sol:InterestModule",
            "label": "lastUpdated",
            "offset": 0,
            "slot": "3",
            "type": "t_uint48"
          },
          {
            "astId": 17115,
            "contract": "src/Interest/InterestModule.sol:InterestModule",
            "label": "fixedRate",
            "offset": 0,
            "slot": "4",
            "type": "t_uint256"
          }
        ],
        "numberOfBytes": "160"
      },
      "t_uint256": {
        "encoding": "inplace",
        "label": "uint256",
        "numberOfBytes": "32"
      },
      "t_uint48": {
        "encoding": "inplace",
        "label": "uint48",
        "numberOfBytes": "6"
      }
    }
  }
}