{
  "address": "0x1B25157F05B25438441bF7CDe38A95A55ccf8E50",
  "abi": [
    {
      "inputs": [
        {
          "internalType": "address",
          "name": "token",
          "type": "address"
        },
        {
          "internalType": "address",
          "name": "_interestModule",
          "type": "address"
        }
      ],
      "stateMutability": "nonpayable",
      "type": "constructor"
    },
    {
      "anonymous": false,
      "inputs": [
        {
          "indexed": true,
          "internalType": "uint256",
          "name": "loanId",
          "type": "uint256"
        },
        {
          "indexed": true,
          "internalType": "address",
          "name": "attestor",
          "type": "address"
        },
        {
          "indexed": true,
          "internalType": "uint256",
          "name": "score",
          "type": "uint256"
        },
        {
          "indexed": false,
          "internalType": "bytes",
          "name": "details",
          "type": "bytes"
        }
      ],
      "name": "Attestation",
      "type": "event"
    },
    {
      "anonymous": false,
      "inputs": [
        {
          "indexed": true,
          "internalType": "address",
          "name": "attestor",
          "type": "address"
        }
      ],
      "name": "AttestorAdded",
      "type": "event"
    },
    {
      "anonymous": false,
      "inputs": [
        {
          "indexed": true,
          "internalType": "address",
          "name": "attestor",
          "type": "address"
        }
      ],
      "name": "AttestorRemoved",
      "type": "event"
    },
    {
      "anonymous": false,
      "inputs": [
        {
          "indexed": true,
          "internalType": "uint256",
          "name": "id",
          "type": "uint256"
        },
        {
          "indexed": false,
          "internalType": "uint256",
          "name": "time",
          "type": "uint256"
        },
        {
          "indexed": true,
          "internalType": "address",
          "name": "borrower",
          "type": "address"
        },
        {
          "indexed": false,
          "internalType": "uint256",
          "name": "amount",
          "type": "uint256"
        }
      ],
      "name": "LoanFulfilled",
      "type": "event"
    },
    {
      "anonymous": false,
      "inputs": [
        {
          "indexed": true,
          "internalType": "uint256",
          "name": "id",
          "type": "uint256"
        },
        {
          "indexed": false,
          "internalType": "uint256",
          "name": "time",
          "type": "uint256"
        },
        {
          "indexed": true,
          "internalType": "address",
          "name": "borrower",
          "type": "address"
        },
        {
          "indexed": false,
          "internalType": "uint256",
          "name": "amountBorrowed",
          "type": "uint256"
        },
        {
          "indexed": false,
          "internalType": "uint256",
          "name": "elapsedTime",
          "type": "uint256"
        },
        {
          "indexed": false,
          "internalType": "int256",
          "name": "changeToCredit",
          "type": "int256"
        }
      ],
      "name": "LoanFullyPaid",
      "type": "event"
    },
    {
      "anonymous": false,
      "inputs": [
        {
          "indexed": true,
          "internalType": "uint256",
          "name": "id",
          "type": "uint256"
        },
        {
          "indexed": false,
          "internalType": "uint256",
          "name": "time",
          "type": "uint256"
        },
        {
          "indexed": true,
          "internalType": "address",
          "name": "borrower",
          "type": "address"
        },
        {
          "indexed": true,
          "internalType": "uint256",
          "name": "amountPaid",
          "type": "uint256"
        },
        {
          "indexed": false,
          "internalType": "uint256",
          "name": "outstandingLoanAmount",
          "type": "uint256"
        }
      ],
      "name": "LoanPaymentMade",
      "type": "event"
    },
    {
      "anonymous": false,
      "inputs": [
        {
          "indexed": true,
          "internalType": "uint256",
          "name": "id",
          "type": "uint256"
        },
        {
          "indexed": true,
          "internalType": "address",
          "name": "requestor",
          "type": "address"
        },
        {
          "indexed": false,
          "internalType": "uint256",
          "name": "timestamp",
          "type": "uint256"
        },
        {
          "indexed": false,
          "internalType": "uint256",
          "name": "amount",
          "type": "uint256"
        },
        {
          "indexed": false,
          "internalType": "uint256",
          "name": "rate",
          "type": "uint256"
        }
      ],
      "name": "LoanRequested",
      "type": "event"
    },
    {
      "anonymous": false,
      "inputs": [
        {
          "indexed": true,
          "internalType": "address",
          "name": "previousOwner",
          "type": "address"
        },
        {
          "indexed": true,
          "internalType": "address",
          "name": "newOwner",
          "type": "address"
        }
      ],
      "name": "OwnershipTransferred",
      "type": "event"
    },
    {
      "inputs": [],
      "name": "IDs",
      "outputs": [
        {
          "internalType": "uint256",
          "name": "",
          "type": "uint256"
        }
      ],
      "stateMutability": "view",
      "type": "function"
    },
    {
      "inputs": [],
      "name": "PERCENT_DENOMINATOR",
      "outputs": [
        {
          "internalType": "uint256",
          "name": "",
          "type": "uint256"
        }
      ],
      "stateMutability": "view",
      "type": "function"
    },
    {
      "inputs": [
        {
          "internalType": "address",
          "name": "newAttestor",
          "type": "address"
        }
      ],
      "name": "addAttestor",
      "outputs": [],
      "stateMutability": "nonpayable",
      "type": "function"
    },
    {
      "inputs": [
        {
          "internalType": "uint256",
          "name": "loanId",
          "type": "uint256"
        },
        {
          "internalType": "uint256",
          "name": "score",
          "type": "uint256"
        },
        {
          "internalType": "bytes",
          "name": "details",
          "type": "bytes"
        }
      ],
      "name": "attest",
      "outputs": [],
      "stateMutability": "nonpayable",
      "type": "function"
    },
    {
      "inputs": [
        {
          "internalType": "address",
          "name": "",
          "type": "address"
        }
      ],
      "name": "attestors",
      "outputs": [
        {
          "internalType": "bool",
          "name": "",
          "type": "bool"
        }
      ],
      "stateMutability": "view",
      "type": "function"
    },
    {
      "inputs": [
        {
          "internalType": "uint256",
          "name": "creditId",
          "type": "uint256"
        }
      ],
      "name": "claimCredit",
      "outputs": [
        {
          "internalType": "uint256",
          "name": "",
          "type": "uint256"
        }
      ],
      "stateMutability": "nonpayable",
      "type": "function"
    },
    {
      "inputs": [
        {
          "internalType": "uint256",
          "name": "id",
          "type": "uint256"
        },
        {
          "internalType": "uint256",
          "name": "amount",
          "type": "uint256"
        }
      ],
      "name": "contribute",
      "outputs": [
        {
          "internalType": "uint256",
          "name": "",
          "type": "uint256"
        }
      ],
      "stateMutability": "nonpayable",
      "type": "function"
    },
    {
      "inputs": [
        {
          "internalType": "address",
          "name": "",
          "type": "address"
        }
      ],
      "name": "creditScores",
      "outputs": [
        {
          "internalType": "uint256",
          "name": "",
          "type": "uint256"
        }
      ],
      "stateMutability": "view",
      "type": "function"
    },
    {
      "inputs": [],
      "name": "creditToken",
      "outputs": [
        {
          "internalType": "address",
          "name": "",
          "type": "address"
        }
      ],
      "stateMutability": "view",
      "type": "function"
    },
    {
      "inputs": [
        {
          "internalType": "uint256",
          "name": "id",
          "type": "uint256"
        }
      ],
      "name": "getAmountLeftToFill",
      "outputs": [
        {
          "internalType": "uint256",
          "name": "",
          "type": "uint256"
        }
      ],
      "stateMutability": "view",
      "type": "function"
    },
    {
      "inputs": [
        {
          "internalType": "uint256",
          "name": "id",
          "type": "uint256"
        }
      ],
      "name": "getAmountOwed",
      "outputs": [
        {
          "internalType": "uint256",
          "name": "",
          "type": "uint256"
        }
      ],
      "stateMutability": "view",
      "type": "function"
    },
    {
      "inputs": [
        {
          "internalType": "uint256",
          "name": "id",
          "type": "uint256"
        }
      ],
      "name": "getRequester",
      "outputs": [
        {
          "internalType": "address",
          "name": "",
          "type": "address"
        }
      ],
      "stateMutability": "view",
      "type": "function"
    },
    {
      "inputs": [],
      "name": "interestModule",
      "outputs": [
        {
          "internalType": "contract InterestModuleLike",
          "name": "",
          "type": "address"
        }
      ],
      "stateMutability": "view",
      "type": "function"
    },
    {
      "inputs": [],
      "name": "interestRate",
      "outputs": [
        {
          "internalType": "uint256",
          "name": "",
          "type": "uint256"
        }
      ],
      "stateMutability": "view",
      "type": "function"
    },
    {
      "inputs": [
        {
          "internalType": "uint256",
          "name": "",
          "type": "uint256"
        }
      ],
      "name": "loans",
      "outputs": [
        {
          "internalType": "uint256",
          "name": "start",
          "type": "uint256"
        },
        {
          "internalType": "uint256",
          "name": "deadline",
          "type": "uint256"
        },
        {
          "internalType": "uint256",
          "name": "id",
          "type": "uint256"
        },
        {
          "internalType": "address",
          "name": "borrower",
          "type": "address"
        },
        {
          "internalType": "uint256",
          "name": "totalPaid",
          "type": "uint256"
        },
        {
          "internalType": "enum LoanStructures.LoanPurpose",
          "name": "purpose",
          "type": "uint8"
        },
        {
          "internalType": "bool",
          "name": "closed",
          "type": "bool"
        },
        {
          "internalType": "uint256",
          "name": "amount",
          "type": "uint256"
        }
      ],
      "stateMutability": "view",
      "type": "function"
    },
    {
      "inputs": [],
      "name": "owner",
      "outputs": [
        {
          "internalType": "address",
          "name": "",
          "type": "address"
        }
      ],
      "stateMutability": "view",
      "type": "function"
    },
    {
      "inputs": [
        {
          "internalType": "address",
          "name": "toRemove",
          "type": "address"
        }
      ],
      "name": "removeAttestor",
      "outputs": [],
      "stateMutability": "nonpayable",
      "type": "function"
    },
    {
      "inputs": [],
      "name": "renounceOwnership",
      "outputs": [],
      "stateMutability": "nonpayable",
      "type": "function"
    },
    {
      "inputs": [
        {
          "internalType": "uint256",
          "name": "id",
          "type": "uint256"
        },
        {
          "internalType": "uint256",
          "name": "amount",
          "type": "uint256"
        }
      ],
      "name": "repayLoan",
      "outputs": [],
      "stateMutability": "nonpayable",
      "type": "function"
    },
    {
      "inputs": [
        {
          "internalType": "enum LoanStructures.LoanPurpose",
          "name": "purpose",
          "type": "uint8"
        },
        {
          "internalType": "uint256",
          "name": "amount",
          "type": "uint256"
        },
        {
          "internalType": "uint256",
          "name": "duration",
          "type": "uint256"
        }
      ],
      "name": "requestLoan",
      "outputs": [
        {
          "internalType": "uint256",
          "name": "loanId",
          "type": "uint256"
        }
      ],
      "stateMutability": "nonpayable",
      "type": "function"
    },
    {
      "inputs": [
        {
          "internalType": "address",
          "name": "",
          "type": "address"
        }
      ],
      "name": "requestsByAddress",
      "outputs": [
        {
          "internalType": "uint256",
          "name": "",
          "type": "uint256"
        }
      ],
      "stateMutability": "view",
      "type": "function"
    },
    {
      "inputs": [
        {
          "internalType": "uint256",
          "name": "",
          "type": "uint256"
        }
      ],
      "name": "requestsById",
      "outputs": [
        {
          "internalType": "uint256",
          "name": "amount",
          "type": "uint256"
        },
        {
          "internalType": "uint256",
          "name": "amountFilled",
          "type": "uint256"
        },
        {
          "internalType": "address",
          "name": "borrower",
          "type": "address"
        },
        {
          "internalType": "uint256",
          "name": "duration",
          "type": "uint256"
        },
        {
          "internalType": "enum LoanStructures.LoanPurpose",
          "name": "purpose",
          "type": "uint8"
        }
      ],
      "stateMutability": "view",
      "type": "function"
    },
    {
      "inputs": [
        {
          "internalType": "address",
          "name": "token",
          "type": "address"
        }
      ],
      "name": "setCreditToken",
      "outputs": [],
      "stateMutability": "nonpayable",
      "type": "function"
    },
    {
      "inputs": [],
      "name": "settlementToken",
      "outputs": [
        {
          "internalType": "address",
          "name": "",
          "type": "address"
        }
      ],
      "stateMutability": "view",
      "type": "function"
    },
    {
      "inputs": [
        {
          "internalType": "address",
          "name": "newOwner",
          "type": "address"
        }
      ],
      "name": "transferOwnership",
      "outputs": [],
      "stateMutability": "nonpayable",
      "type": "function"
    }
  ],
  "transactionHash": "0x858c8327fd8389b52bac1fd9e1bcc4270bfc0942274bde24b81efa2ae9a6e9f6",
  "args": [
    "0x874069Fa1Eb16D44d622F2e0Ca25eeA172369bC1",
    "0xb4e9A5BC64DC07f890367F72941403EEd7faDCbB"
  ],
  "numDeployments": 9,
  "solcInputHash": "287f0ac7a567ea91243b49ddaecf063d",
  "bytecode": "0x6080604052633b9aca006006553480156200001957600080fd5b5060405162003b7138038062003b718339810160408190526200003c9162000162565b6200004733620000e7565b600780546001600160a01b038085166001600160a01b0319928316179092556001600955600a80549284169290911691909117905560405160009030906200008f9062000137565b6001600160a01b039091168152602001604051809103906000f080158015620000bc573d6000803e3d6000fd5b50600880546001600160a01b0319166001600160a01b0392909216919091179055506200019a915050565b600080546001600160a01b038381166001600160a01b0319831681178455604051919092169283917f8be0079c531659141344cd1fd0a4f28419497f9722a3daafe3b4186f6b6457e09190a35050565b611dab8062001dc683390190565b80516001600160a01b03811681146200015d57600080fd5b919050565b600080604083850312156200017657600080fd5b620001818362000145565b9150620001916020840162000145565b90509250929050565b611c1c80620001aa6000396000f3fe608060405234801561001057600080fd5b50600436106101a35760003560e01c80638c590917116100ee578063d139d9b911610097578063e0cae63511610071578063e0cae635146103d8578063e1ec3c68146103eb578063e847c83b14610460578063f2fde38b1461047357600080fd5b8063d139d9b914610357578063d8e1feed1461036a578063dc8de29b146103c557600080fd5b80639e6c2959116100c85780639e6c29591461032f5780639f9090c51461033b578063b39120231461034457600080fd5b80638c590917146102de5780638da5cb5b146102f157806399c6679d1461030257600080fd5b80637b185e2c1161015057806380bb72731161012a57806380bb727314610298578063899e5d85146102b85780638a700b53146102cb57600080fd5b80637b185e2c1461025c5780637b9e618d1461027c5780637c3a00fd1461028f57600080fd5b80635b91e8c3116101815780635b91e8c3146102165780636a134bd914610241578063715018a61461025457600080fd5b80631338e957146101a85780633756c22f146101e057806349a1e058146101f5575b600080fd5b6101cb6101b636600461171c565b60056020526000908152604090205460ff1681565b60405190151581526020015b60405180910390f35b6101f36101ee366004611740565b610486565b005b6102086102033660046117c0565b61055a565b6040519081526020016101d7565b600a54610229906001600160a01b031681565b6040516001600160a01b0390911681526020016101d7565b6101f361024f36600461171c565b610640565b6101f36106d4565b61020861026a36600461171c565b60036020526000908152604090205481565b600754610229906001600160a01b031681565b61020860065481565b6102086102a636600461171c565b60046020526000908152604090205481565b600854610229906001600160a01b031681565b6101f36102d93660046117f9565b61073a565b6102086102ec3660046117f9565b610a4a565b6000546001600160a01b0316610229565b61022961031036600461181b565b600090815260026020819052604090912001546001600160a01b031690565b6102086402540be40081565b61020860095481565b6101f361035236600461171c565b610c05565b61020861036536600461181b565b610d13565b6103b461037836600461181b565b6002602081905260009182526040909120805460018201549282015460038301546004909301549193926001600160a01b039091169160ff1685565b6040516101d795949392919061189e565b6102086103d336600461181b565b610de0565b6101f36103e636600461171c565b610fe5565b61044c6103f936600461181b565b60016020819052600091825260409091208054918101546002820154600383015460048401546005850154600690950154939492936001600160a01b0390921692909160ff808316926101009004169088565b6040516101d79897969594939291906118cf565b61020861046e36600461181b565b6110f4565b6101f361048136600461171c565b611113565b3360008181526005602052604090205460ff166104ea5760405162461bcd60e51b815260206004820152600f60248201527f4e6f7420616e206174746573746f72000000000000000000000000000000000060448201526064015b60405180910390fd5b6000858152600260208181526040808420909201546001600160a01b031683526004905290819020859055518490339087907f1321dc98926ed00f4f47a83b9953b28793bb014646db06929c8fe5fda6206bf09061054b908890889061191f565b60405180910390a45050505050565b600954600081815260026020819052604090912084815590810180547fffffffffffffffffffffffff0000000000000000000000000000000000000000163317905560048101805486919060ff191660018360068111156105bd576105bd611834565b0217905550600381810184905533600081815260209283526040908190208590556009546006548251428152948501899052848301529051919290917ff6cc19e46a340ab5888d736bfc79aef72ae92d12d7b76319d72b0abc170868e69181900360600190a3600980549060006106338361199b565b9190505550509392505050565b6000546001600160a01b0316331461069a5760405162461bcd60e51b815260206004820181905260248201527f4f776e61626c653a2063616c6c6572206973206e6f7420746865206f776e657260448201526064016104e1565b600880547fffffffffffffffffffffffff0000000000000000000000000000000000000000166001600160a01b0392909216919091179055565b6000546001600160a01b0316331461072e5760405162461bcd60e51b815260206004820181905260248201527f4f776e61626c653a2063616c6c6572206973206e6f7420746865206f776e657260448201526064016104e1565b61073860006111f5565b565b60008281526001602052604090819020600a5491517f744f4cf60000000000000000000000000000000000000000000000000000000081526004810185905290916001600160a01b03169063744f4cf690602401600060405180830381600087803b1580156107a857600080fd5b505af11580156107bc573d6000803e3d6000fd5b5050600a546040517f1e0029c800000000000000000000000000000000000000000000000000000000815260048101879052600093506001600160a01b039091169150631e0029c890602401602060405180830381865afa158015610825573d6000803e3d6000fd5b505050506040513d601f19601f8201168201806040525081019061084991906119d3565b90506000811161089b5760405162461bcd60e51b815260206004820152601560248201527f446f6573206e6f74206f776520616e797468696e67000000000000000000000060448201526064016104e1565b60008184116108aa57836108ac565b815b9050808360040160008282546108c291906119ec565b909155505060075460038401546040517f23b872dd0000000000000000000000000000000000000000000000000000000081526001600160a01b039182166004820152306024820152604481018490529116906323b872dd906064016020604051808303816000875af115801561093d573d6000803e3d6000fd5b505050506040513d601f19601f820116820180604052508101906109619190611a04565b61096a57600080fd5b600a546040517f2047a26700000000000000000000000000000000000000000000000000000000815260048101879052602481018390526001600160a01b0390911690632047a26790604401600060405180830381600087803b1580156109d057600080fd5b505af11580156109e4573d6000803e3d6000fd5b505050508181036109f8576109f88561125d565b600383015481906001600160a01b0316867fa5429926614dc1f98f159430591aa6b73ddbcbfc1431ec98a7efe706b936747942610a358588611a26565b6040805192835260208301919091520161054b565b6000828152600260205260408120600181015481548391610a6a91611a26565b90506000818511610a7b5784610a7d565b815b6007546040517f23b872dd000000000000000000000000000000000000000000000000000000008152336004820152306024820152604481018390529192506001600160a01b0316906323b872dd906064016020604051808303816000875af1158015610aee573d6000803e3d6000fd5b505050506040513d601f19601f82011682018060405250810190610b129190611a04565b610b1b57600080fd5b80836001016000828254610b2f91906119ec565b90915550508254600184015403610b4957610b498661136e565b60085460408051606081018252888152602081018481523382840190815292517fb2e0c9a00000000000000000000000000000000000000000000000000000000081529151600483015251602482015290516001600160a01b0390811660448301529091169063b2e0c9a0906064016020604051808303816000875af1158015610bd7573d6000803e3d6000fd5b505050506040513d601f19601f82011682018060405250810190610bfb91906119d3565b9695505050505050565b6000546001600160a01b03163314610c5f5760405162461bcd60e51b815260206004820181905260248201527f4f776e61626c653a2063616c6c6572206973206e6f7420746865206f776e657260448201526064016104e1565b6001600160a01b038116600090815260056020526040902054819060ff16610cc95760405162461bcd60e51b815260206004820152600f60248201527f4e6f7420616e206174746573746f72000000000000000000000000000000000060448201526064016104e1565b6001600160a01b038216600081815260056020526040808220805460ff19169055517f7b1e5155c9ac76eaa3c56fcf63a3383cd696a6fa84c49901c7ae374c0a5086129190a25050565b600081815260016020526040812060050154610100900460ff1680610d475750600082815260016020526040902060020154155b15610d5457506000919050565b600a546040517f1e0029c8000000000000000000000000000000000000000000000000000000008152600481018490526001600160a01b0390911690631e0029c890602401602060405180830381865afa158015610db6573d6000803e3d6000fd5b505050506040513d601f19601f82011682018060405250810190610dda91906119d3565b92915050565b6008546040517f7c37722300000000000000000000000000000000000000000000000000000000815260048101839052600091829182916001600160a01b031690637c3772239060240160a060405180830381865afa158015610e47573d6000803e3d6000fd5b505050506040513d601f19601f82011682018060405250810190610e6b9190611a4d565b8151600090815260016020526040812060608401516004820154949650929450929091610e9791611a26565b905060008260060154828660200151610eb09190611afa565b610eba9190611b37565b60048085015460608801526008546040517f7ff241ce0000000000000000000000000000000000000000000000000000000081529293506001600160a01b031691637ff241ce91610f18918b91869101918252602082015260400190565b600060405180830381600087803b158015610f3257600080fd5b505af1158015610f46573d6000803e3d6000fd5b50506007546040517fa9059cbb0000000000000000000000000000000000000000000000000000000081526001600160a01b03888116600483015260248201869052909116925063a9059cbb91506044016020604051808303816000875af1158015610fb6573d6000803e3d6000fd5b505050506040513d601f19601f82011682018060405250810190610fda9190611a04565b509695505050505050565b6000546001600160a01b0316331461103f5760405162461bcd60e51b815260206004820181905260248201527f4f776e61626c653a2063616c6c6572206973206e6f7420746865206f776e657260448201526064016104e1565b6001600160a01b03811660009081526005602052604090205460ff16156110a85760405162461bcd60e51b815260206004820152601360248201527f416c726561647920616e206174746573746f720000000000000000000000000060448201526064016104e1565b6001600160a01b038116600081815260056020526040808220805460ff19166001179055517f945c4a21d3fce955d17e31fcc471734b3d754c032b3805b02fe75d89c29b2a3a9190a250565b600081815260026020526040812060018101549054610dda9190611a26565b6000546001600160a01b0316331461116d5760405162461bcd60e51b815260206004820181905260248201527f4f776e61626c653a2063616c6c6572206973206e6f7420746865206f776e657260448201526064016104e1565b6001600160a01b0381166111e95760405162461bcd60e51b815260206004820152602660248201527f4f776e61626c653a206e6577206f776e657220697320746865207a65726f206160448201527f646472657373000000000000000000000000000000000000000000000000000060648201526084016104e1565b6111f2816111f5565b50565b600080546001600160a01b038381167fffffffffffffffffffffffff0000000000000000000000000000000000000000831681178455604051919092169283917f8be0079c531659141344cd1fd0a4f28419497f9722a3daafe3b4186f6b6457e09190a35050565b60008181526001602052604081206005810180547fffffffffffffffffffffffffffffffffffffffffffffffffffffffffffff00ff1661010017905580549091906112a89042611a26565b82549091506000906112ba9042611b72565b835460038501546001600160a01b0316600090815260046020526040902054919250906112e89042906119ec565b6112f29190611a26565b6003840180546001600160a01b03908116600090815260046020908152604091829020949094559154600687015483514281529485015291830185905260608301849052169085907f5751530710eb6f83af18f5aba63d1721745fa34ea155523a93b06d58aadc3ceb906080015b60405180910390a350505050565b6000818152600260208190526040909120015481906001600160a01b03166113d85760405162461bcd60e51b815260206004820152601660248201527f5265717565737420646f6573206e6f742065786973740000000000000000000060448201526064016104e1565b6000828152600260208181526040808420928301546001600160a01b03168452600382528084205484526001909152909120541580156114245750600083815260016020526040902054155b6114705760405162461bcd60e51b815260206004820152601c60248201527f557365722068617320616e206f75747374616e64696e67206c6f616e0000000060448201526064016104e1565b6000838152600160205260409020428082556003830154611490916119ec565b60018083019190915560028083018690558301546003830180547fffffffffffffffffffffffff0000000000000000000000000000000000000000166001600160a01b03909216919091179055600483015460058301805460ff90921692909160ff19169083600681111561150757611507611834565b02179055508154600682810191909155600a5490546040517f1ec9f27b000000000000000000000000000000000000000000000000000000008152600481018790526024810182905260448101919091526001600160a01b0390911690631ec9f27b90606401600060405180830381600087803b15801561158757600080fd5b505af115801561159b573d6000803e3d6000fd5b5050600a5460068401546040517f071ffb3c0000000000000000000000000000000000000000000000000000000081526004810189905260248101919091526001600160a01b03909116925063071ffb3c9150604401600060405180830381600087803b15801561160b57600080fd5b505af115801561161f573d6000803e3d6000fd5b5050600754600285015485546040517fa9059cbb0000000000000000000000000000000000000000000000000000000081526001600160a01b03928316600482015260248101919091529116925063a9059cbb91506044016020604051808303816000875af1158015611696573d6000803e3d6000fd5b505050506040513d601f19601f820116820180604052508101906116ba9190611a04565b50600282015482546040516001600160a01b039092169186917f2b1eb56f9d2886ace1dfc4a1acf6a640b828f3782247397ebf22f6cf09665b7e9161136091428252602082015260400190565b6001600160a01b03811681146111f257600080fd5b60006020828403121561172e57600080fd5b813561173981611707565b9392505050565b6000806000806060858703121561175657600080fd5b8435935060208501359250604085013567ffffffffffffffff8082111561177c57600080fd5b818701915087601f83011261179057600080fd5b81358181111561179f57600080fd5b8860208285010111156117b157600080fd5b95989497505060200194505050565b6000806000606084860312156117d557600080fd5b8335600781106117e457600080fd5b95602085013595506040909401359392505050565b6000806040838503121561180c57600080fd5b50508035926020909101359150565b60006020828403121561182d57600080fd5b5035919050565b7f4e487b7100000000000000000000000000000000000000000000000000000000600052602160045260246000fd5b6007811061189a577f4e487b7100000000000000000000000000000000000000000000000000000000600052602160045260246000fd5b9052565b858152602081018590526001600160a01b03841660408201526060810183905260a08101610bfb6080830184611863565b6000610100820190508982528860208301528760408301526001600160a01b038716606083015285608083015261190960a0830186611863565b92151560c082015260e001529695505050505050565b60208152816020820152818360408301376000818301604090810191909152601f9092017fffffffffffffffffffffffffffffffffffffffffffffffffffffffffffffffe0160101919050565b7f4e487b7100000000000000000000000000000000000000000000000000000000600052601160045260246000fd5b60007fffffffffffffffffffffffffffffffffffffffffffffffffffffffffffffffff82036119cc576119cc61196c565b5060010190565b6000602082840312156119e557600080fd5b5051919050565b600082198211156119ff576119ff61196c565b500190565b600060208284031215611a1657600080fd5b8151801515811461173957600080fd5b600082821015611a3857611a3861196c565b500390565b8051611a4881611707565b919050565b60008082840360a0811215611a6157600080fd5b6080811215611a6f57600080fd5b506040516080810181811067ffffffffffffffff82111715611aba577f4e487b7100000000000000000000000000000000000000000000000000000000600052604160045260246000fd5b80604052508351815260208401516020820152604084015160408201526060840151606082015280925050611af160808401611a3d565b90509250929050565b6000817fffffffffffffffffffffffffffffffffffffffffffffffffffffffffffffffff0483118215151615611b3257611b3261196c565b500290565b600082611b6d577f4e487b7100000000000000000000000000000000000000000000000000000000600052601260045260246000fd5b500490565b6000808312837f800000000000000000000000000000000000000000000000000000000000000001831281151615611bac57611bac61196c565b837f7fffffffffffffffffffffffffffffffffffffffffffffffffffffffffffffff018313811615611be057611be061196c565b5050039056fea264697066735822122012e119a9a3d5a76b962f328720dd45aa72a141d80b58a538081faf4f96bffcfd64736f6c634300080d003360806040523480156200001157600080fd5b5060405162001dab38038062001dab83398101604081905262000034916200018b565b6040518060400160405280602081526020017f313735342042756c6c6574204c6f616e204372656469742052656365697074738152506040518060400160405280600581526020016418919050d560da1b8152508160009080519060200190620000a0929190620000e5565b508051620000b6906001906020840190620000e5565b5050600780546001600160a01b0319166001600160a01b039390931692909217909155506000600855620001f9565b828054620000f390620001bd565b90600052602060002090601f01602090048101928262000117576000855562000162565b82601f106200013257805160ff191683800117855562000162565b8280016001018555821562000162579182015b828111156200016257825182559160200191906001019062000145565b506200017092915062000174565b5090565b5b8082111562000170576000815560010162000175565b6000602082840312156200019e57600080fd5b81516001600160a01b0381168114620001b657600080fd5b9392505050565b600181811c90821680620001d257607f821691505b602082108103620001f357634e487b7160e01b600052602260045260246000fd5b50919050565b611ba280620002096000396000f3fe608060405234801561001057600080fd5b506004361061011b5760003560e01c806370a08231116100b2578063a22cb46511610081578063b88d4fde11610066578063b88d4fde1461029e578063c87b56dd146102b1578063e985e9c5146102c457600080fd5b8063a22cb46514610278578063b2e0c9a01461028b57600080fd5b806370a08231146101e95780637c3772231461020a5780637ff241ce1461025d57806395d89b411461027057600080fd5b806323b872dd116100ee57806323b872dd1461019d57806342842e0e146101b057806342966c68146101c35780636352211e146101d657600080fd5b806301ffc9a71461012057806306fdde0314610148578063081812fc1461015d578063095ea7b314610188575b600080fd5b61013361012e36600461168e565b610300565b60405190151581526020015b60405180910390f35b6101506103e5565b60405161013f9190611703565b61017061016b366004611716565b610477565b6040516001600160a01b03909116815260200161013f565b61019b610196366004611746565b610522565b005b61019b6101ab366004611770565b610653565b61019b6101be366004611770565b6106da565b61019b6101d1366004611716565b6106f5565b6101706101e4366004611716565b61075b565b6101fc6101f73660046117ac565b6107e6565b60405190815260200161013f565b61021d610218366004611716565b610880565b6040805183518152602080850151908201528382015191810191909152606092830151928101929092526001600160a01b0316608082015260a00161013f565b61019b61026b3660046117c7565b610967565b610150610a3a565b61019b6102863660046117e9565b610a49565b6101fc610299366004611825565b610a58565b61019b6102ac36600461186c565b610b11565b6101506102bf366004611716565b610b9f565b6101336102d2366004611948565b6001600160a01b03918216600090815260056020908152604080832093909416825291909152205460ff1690565b60007fffffffff0000000000000000000000000000000000000000000000000000000082167f80ac58cd00000000000000000000000000000000000000000000000000000000148061039357507fffffffff0000000000000000000000000000000000000000000000000000000082167f5b5e139f00000000000000000000000000000000000000000000000000000000145b806103df57507f01ffc9a7000000000000000000000000000000000000000000000000000000007fffffffff000000000000000000000000000000000000000000000000000000008316145b92915050565b6060600080546103f49061197b565b80601f01602080910402602001604051908101604052809291908181526020018280546104209061197b565b801561046d5780601f106104425761010080835404028352916020019161046d565b820191906000526020600020905b81548152906001019060200180831161045057829003601f168201915b5050505050905090565b6000818152600260205260408120546001600160a01b03166105065760405162461bcd60e51b815260206004820152602c60248201527f4552433732313a20617070726f76656420717565727920666f72206e6f6e657860448201527f697374656e7420746f6b656e000000000000000000000000000000000000000060648201526084015b60405180910390fd5b506000908152600460205260409020546001600160a01b031690565b600061052d8261075b565b9050806001600160a01b0316836001600160a01b0316036105b65760405162461bcd60e51b815260206004820152602160248201527f4552433732313a20617070726f76616c20746f2063757272656e74206f776e6560448201527f720000000000000000000000000000000000000000000000000000000000000060648201526084016104fd565b336001600160a01b03821614806105d257506105d281336102d2565b6106445760405162461bcd60e51b815260206004820152603860248201527f4552433732313a20617070726f76652063616c6c6572206973206e6f74206f7760448201527f6e6572206e6f7220617070726f76656420666f7220616c6c000000000000000060648201526084016104fd565b61064e8383610c95565b505050565b61065d3382610d1b565b6106cf5760405162461bcd60e51b815260206004820152603160248201527f4552433732313a207472616e736665722063616c6c6572206973206e6f74206f60448201527f776e6572206e6f7220617070726f76656400000000000000000000000000000060648201526084016104fd565b61064e838383610e23565b61064e83838360405180602001604052806000815250610b11565b6007546001600160a01b0316331461074f5760405162461bcd60e51b815260206004820152600c60248201527f556e617574686f72697a6564000000000000000000000000000000000000000060448201526064016104fd565b61075881611008565b50565b6000818152600260205260408120546001600160a01b0316806103df5760405162461bcd60e51b815260206004820152602960248201527f4552433732313a206f776e657220717565727920666f72206e6f6e657869737460448201527f656e7420746f6b656e000000000000000000000000000000000000000000000060648201526084016104fd565b60006001600160a01b0382166108645760405162461bcd60e51b815260206004820152602a60248201527f4552433732313a2062616c616e636520717565727920666f7220746865207a6560448201527f726f20616464726573730000000000000000000000000000000000000000000060648201526084016104fd565b506001600160a01b031660009081526003602052604090205490565b6108ab6040518060800160405280600081526020016000815260200160008152602001600081525090565b6000828152600260205260408120546001600160a01b031661090f5760405162461bcd60e51b815260206004820152601d60248201527f4c696e65206f662063726564697420646f6573206e6f7420657869737400000060448201526064016104fd565b6006600084815260200190815260200160002060405180608001604052908160008201548152602001600182015481526020016002820154815260200160038201548152505091506109608361075b565b9050915091565b6007546001600160a01b031633146109c15760405162461bcd60e51b815260206004820152600c60248201527f556e617574686f72697a6564000000000000000000000000000000000000000060448201526064016104fd565b6000828152600260205260409020546001600160a01b0316610a255760405162461bcd60e51b815260206004820152601d60248201527f4c696e65206f662063726564697420646f6573206e6f7420657869737400000060448201526064016104fd565b60009182526006602052604090912060020155565b6060600180546103f49061197b565b610a543383836110bb565b5050565b6007546000906001600160a01b03163314610ab55760405162461bcd60e51b815260206004820152600c60248201527f556e617574686f72697a6564000000000000000000000000000000000000000060448201526064016104fd565b6008546000908152600660209081526040918290209084013560018201558335815590610af490610aec90606086019086016117ac565b6008546111a7565b60088054906000610b04836119f7565b919050559150505b919050565b610b1b3383610d1b565b610b8d5760405162461bcd60e51b815260206004820152603160248201527f4552433732313a207472616e736665722063616c6c6572206973206e6f74206f60448201527f776e6572206e6f7220617070726f76656400000000000000000000000000000060648201526084016104fd565b610b9984848484611301565b50505050565b6000818152600260205260409020546060906001600160a01b0316610c2c5760405162461bcd60e51b815260206004820152602f60248201527f4552433732314d657461646174613a2055524920717565727920666f72206e6f60448201527f6e6578697374656e7420746f6b656e000000000000000000000000000000000060648201526084016104fd565b6000610c4360408051602081019091526000815290565b90506000815111610c635760405180602001604052806000815250610c8e565b80610c6d8461138a565b604051602001610c7e929190611a2f565b6040516020818303038152906040525b9392505050565b600081815260046020526040902080547fffffffffffffffffffffffff0000000000000000000000000000000000000000166001600160a01b0384169081179091558190610ce28261075b565b6001600160a01b03167f8c5be1e5ebec7d5bd14f71427d1e84f3dd0314c0f7b2291e5b200ac8c7c3b92560405160405180910390a45050565b6000818152600260205260408120546001600160a01b0316610da55760405162461bcd60e51b815260206004820152602c60248201527f4552433732313a206f70657261746f7220717565727920666f72206e6f6e657860448201527f697374656e7420746f6b656e000000000000000000000000000000000000000060648201526084016104fd565b6000610db08361075b565b9050806001600160a01b0316846001600160a01b03161480610df757506001600160a01b0380821660009081526005602090815260408083209388168352929052205460ff165b80610e1b5750836001600160a01b0316610e1084610477565b6001600160a01b0316145b949350505050565b826001600160a01b0316610e368261075b565b6001600160a01b031614610eb25760405162461bcd60e51b815260206004820152602560248201527f4552433732313a207472616e736665722066726f6d20696e636f72726563742060448201527f6f776e657200000000000000000000000000000000000000000000000000000060648201526084016104fd565b6001600160a01b038216610f2d5760405162461bcd60e51b8152602060048201526024808201527f4552433732313a207472616e7366657220746f20746865207a65726f2061646460448201527f726573730000000000000000000000000000000000000000000000000000000060648201526084016104fd565b610f38600082610c95565b6001600160a01b0383166000908152600360205260408120805460019290610f61908490611a5e565b90915550506001600160a01b0382166000908152600360205260408120805460019290610f8f908490611a75565b909155505060008181526002602052604080822080547fffffffffffffffffffffffff0000000000000000000000000000000000000000166001600160a01b0386811691821790925591518493918716917fddf252ad1be2c89b69c2b068fc378daa952ba7f163c4a11628f55a4df523b3ef91a4505050565b60006110138261075b565b9050611020600083610c95565b6001600160a01b0381166000908152600360205260408120805460019290611049908490611a5e565b909155505060008281526002602052604080822080547fffffffffffffffffffffffff0000000000000000000000000000000000000000169055518391906001600160a01b038416907fddf252ad1be2c89b69c2b068fc378daa952ba7f163c4a11628f55a4df523b3ef908390a45050565b816001600160a01b0316836001600160a01b03160361111c5760405162461bcd60e51b815260206004820152601960248201527f4552433732313a20617070726f766520746f2063616c6c65720000000000000060448201526064016104fd565b6001600160a01b0383811660008181526005602090815260408083209487168084529482529182902080547fffffffffffffffffffffffffffffffffffffffffffffffffffffffffffffff001686151590811790915591519182527f17307eab39ab6107e8899845ad3d59bd9653f200f220920489ca2b5937696c31910160405180910390a3505050565b6001600160a01b0382166111fd5760405162461bcd60e51b815260206004820181905260248201527f4552433732313a206d696e7420746f20746865207a65726f206164647265737360448201526064016104fd565b6000818152600260205260409020546001600160a01b0316156112625760405162461bcd60e51b815260206004820152601c60248201527f4552433732313a20746f6b656e20616c7265616479206d696e7465640000000060448201526064016104fd565b6001600160a01b038216600090815260036020526040812080546001929061128b908490611a75565b909155505060008181526002602052604080822080547fffffffffffffffffffffffff0000000000000000000000000000000000000000166001600160a01b03861690811790915590518392907fddf252ad1be2c89b69c2b068fc378daa952ba7f163c4a11628f55a4df523b3ef908290a45050565b61130c848484610e23565b611318848484846114bf565b610b995760405162461bcd60e51b815260206004820152603260248201527f4552433732313a207472616e7366657220746f206e6f6e20455243373231526560448201527f63656976657220696d706c656d656e746572000000000000000000000000000060648201526084016104fd565b6060816000036113cd57505060408051808201909152600181527f3000000000000000000000000000000000000000000000000000000000000000602082015290565b8160005b81156113f757806113e1816119f7565b91506113f09050600a83611abc565b91506113d1565b60008167ffffffffffffffff8111156114125761141261183d565b6040519080825280601f01601f19166020018201604052801561143c576020820181803683370190505b5090505b8415610e1b57611451600183611a5e565b915061145e600a86611ad0565b611469906030611a75565b60f81b81838151811061147e5761147e611ae4565b60200101907effffffffffffffffffffffffffffffffffffffffffffffffffffffffffffff1916908160001a9053506114b8600a86611abc565b9450611440565b60006001600160a01b0384163b15611655576040517f150b7a020000000000000000000000000000000000000000000000000000000081526001600160a01b0385169063150b7a029061151c903390899088908890600401611b13565b6020604051808303816000875af1925050508015611557575060408051601f3d908101601f1916820190925261155491810190611b4f565b60015b61160a573d808015611585576040519150601f19603f3d011682016040523d82523d6000602084013e61158a565b606091505b5080516000036116025760405162461bcd60e51b815260206004820152603260248201527f4552433732313a207472616e7366657220746f206e6f6e20455243373231526560448201527f63656976657220696d706c656d656e746572000000000000000000000000000060648201526084016104fd565b805181602001fd5b7fffffffff00000000000000000000000000000000000000000000000000000000167f150b7a0200000000000000000000000000000000000000000000000000000000149050610e1b565b506001949350505050565b7fffffffff000000000000000000000000000000000000000000000000000000008116811461075857600080fd5b6000602082840312156116a057600080fd5b8135610c8e81611660565b60005b838110156116c65781810151838201526020016116ae565b83811115610b995750506000910152565b600081518084526116ef8160208601602086016116ab565b601f01601f19169290920160200192915050565b602081526000610c8e60208301846116d7565b60006020828403121561172857600080fd5b5035919050565b80356001600160a01b0381168114610b0c57600080fd5b6000806040838503121561175957600080fd5b6117628361172f565b946020939093013593505050565b60008060006060848603121561178557600080fd5b61178e8461172f565b925061179c6020850161172f565b9150604084013590509250925092565b6000602082840312156117be57600080fd5b610c8e8261172f565b600080604083850312156117da57600080fd5b50508035926020909101359150565b600080604083850312156117fc57600080fd5b6118058361172f565b91506020830135801515811461181a57600080fd5b809150509250929050565b60006060828403121561183757600080fd5b50919050565b7f4e487b7100000000000000000000000000000000000000000000000000000000600052604160045260246000fd5b6000806000806080858703121561188257600080fd5b61188b8561172f565b93506118996020860161172f565b925060408501359150606085013567ffffffffffffffff808211156118bd57600080fd5b818701915087601f8301126118d157600080fd5b8135818111156118e3576118e361183d565b604051601f8201601f19908116603f0116810190838211818310171561190b5761190b61183d565b816040528281528a602084870101111561192457600080fd5b82602086016020830137600060208483010152809550505050505092959194509250565b6000806040838503121561195b57600080fd5b6119648361172f565b91506119726020840161172f565b90509250929050565b600181811c9082168061198f57607f821691505b602082108103611837577f4e487b7100000000000000000000000000000000000000000000000000000000600052602260045260246000fd5b7f4e487b7100000000000000000000000000000000000000000000000000000000600052601160045260246000fd5b60007fffffffffffffffffffffffffffffffffffffffffffffffffffffffffffffffff8203611a2857611a286119c8565b5060010190565b60008351611a418184602088016116ab565b835190830190611a558183602088016116ab565b01949350505050565b600082821015611a7057611a706119c8565b500390565b60008219821115611a8857611a886119c8565b500190565b7f4e487b7100000000000000000000000000000000000000000000000000000000600052601260045260246000fd5b600082611acb57611acb611a8d565b500490565b600082611adf57611adf611a8d565b500690565b7f4e487b7100000000000000000000000000000000000000000000000000000000600052603260045260246000fd5b60006001600160a01b03808716835280861660208401525083604083015260806060830152611b4560808301846116d7565b9695505050505050565b600060208284031215611b6157600080fd5b8151610c8e8161166056fea264697066735822122061de0babcc7175f14ff4456b2b32b323e130027cf29bd258130d5cbea565a28764736f6c634300080d0033",
  "devdoc": {
    "kind": "dev",
    "methods": {
      "owner()": {
        "details": "Returns the address of the current owner."
      },
      "renounceOwnership()": {
        "details": "Leaves the contract without owner. It will not be possible to call `onlyOwner` functions anymore. Can only be called by the current owner. NOTE: Renouncing ownership will leave the contract without an owner, thereby removing any functionality that is only available to the owner."
      },
      "transferOwnership(address)": {
        "details": "Transfers ownership of the contract to a new account (`newOwner`). Can only be called by the current owner."
      }
    },
    "version": 1
  },
  "userdoc": {
    "kind": "user",
    "methods": {},
    "version": 1
  },
  "storageLayout": {
    "storage": [
      {
        "astId": 12677,
        "contract": "src/Borrowers/MicroLoanFactory.sol:MicroLoanFactory",
        "label": "_owner",
        "offset": 0,
        "slot": "0",
        "type": "t_address"
      },
      {
        "astId": 15335,
        "contract": "src/Borrowers/MicroLoanFactory.sol:MicroLoanFactory",
        "label": "loans",
        "offset": 0,
        "slot": "1",
        "type": "t_mapping(t_uint256,t_struct(Loan)17466_storage)"
      },
      {
        "astId": 15340,
        "contract": "src/Borrowers/MicroLoanFactory.sol:MicroLoanFactory",
        "label": "requestsById",
        "offset": 0,
        "slot": "2",
        "type": "t_mapping(t_uint256,t_struct(LoanRequest)17478_storage)"
      },
      {
        "astId": 15344,
        "contract": "src/Borrowers/MicroLoanFactory.sol:MicroLoanFactory",
        "label": "requestsByAddress",
        "offset": 0,
        "slot": "3",
        "type": "t_mapping(t_address,t_uint256)"
      },
      {
        "astId": 15348,
        "contract": "src/Borrowers/MicroLoanFactory.sol:MicroLoanFactory",
        "label": "creditScores",
        "offset": 0,
        "slot": "4",
        "type": "t_mapping(t_address,t_uint256)"
      },
      {
        "astId": 15352,
        "contract": "src/Borrowers/MicroLoanFactory.sol:MicroLoanFactory",
        "label": "attestors",
        "offset": 0,
        "slot": "5",
        "type": "t_mapping(t_address,t_bool)"
      },
      {
        "astId": 15357,
        "contract": "src/Borrowers/MicroLoanFactory.sol:MicroLoanFactory",
        "label": "interestRate",
        "offset": 0,
        "slot": "6",
        "type": "t_uint256"
      },
      {
        "astId": 15359,
        "contract": "src/Borrowers/MicroLoanFactory.sol:MicroLoanFactory",
        "label": "settlementToken",
        "offset": 0,
        "slot": "7",
        "type": "t_address"
      },
      {
        "astId": 15361,
        "contract": "src/Borrowers/MicroLoanFactory.sol:MicroLoanFactory",
        "label": "creditToken",
        "offset": 0,
        "slot": "8",
        "type": "t_address"
      },
      {
        "astId": 15363,
        "contract": "src/Borrowers/MicroLoanFactory.sol:MicroLoanFactory",
        "label": "IDs",
        "offset": 0,
        "slot": "9",
        "type": "t_uint256"
      },
      {
        "astId": 15366,
        "contract": "src/Borrowers/MicroLoanFactory.sol:MicroLoanFactory",
        "label": "interestModule",
        "offset": 0,
        "slot": "10",
        "type": "t_contract(InterestModuleLike)15324"
      }
    ],
    "types": {
      "t_address": {
        "encoding": "inplace",
        "label": "address",
        "numberOfBytes": "20"
      },
      "t_bool": {
        "encoding": "inplace",
        "label": "bool",
        "numberOfBytes": "1"
      },
      "t_contract(InterestModuleLike)15324": {
        "encoding": "inplace",
        "label": "contract InterestModuleLike",
        "numberOfBytes": "20"
      },
      "t_enum(LoanPurpose)17443": {
        "encoding": "inplace",
        "label": "enum LoanStructures.LoanPurpose",
        "numberOfBytes": "1"
      },
      "t_mapping(t_address,t_bool)": {
        "encoding": "mapping",
        "key": "t_address",
        "label": "mapping(address => bool)",
        "numberOfBytes": "32",
        "value": "t_bool"
      },
      "t_mapping(t_address,t_uint256)": {
        "encoding": "mapping",
        "key": "t_address",
        "label": "mapping(address => uint256)",
        "numberOfBytes": "32",
        "value": "t_uint256"
      },
      "t_mapping(t_uint256,t_struct(Loan)17466_storage)": {
        "encoding": "mapping",
        "key": "t_uint256",
        "label": "mapping(uint256 => struct LoanStructures.Loan)",
        "numberOfBytes": "32",
        "value": "t_struct(Loan)17466_storage"
      },
      "t_mapping(t_uint256,t_struct(LoanRequest)17478_storage)": {
        "encoding": "mapping",
        "key": "t_uint256",
        "label": "mapping(uint256 => struct LoanStructures.LoanRequest)",
        "numberOfBytes": "32",
        "value": "t_struct(LoanRequest)17478_storage"
      },
      "t_struct(Loan)17466_storage": {
        "encoding": "inplace",
        "label": "struct LoanStructures.Loan",
        "members": [
          {
            "astId": 17450,
            "contract": "src/Borrowers/MicroLoanFactory.sol:MicroLoanFactory",
            "label": "start",
            "offset": 0,
            "slot": "0",
            "type": "t_uint256"
          },
          {
            "astId": 17452,
            "contract": "src/Borrowers/MicroLoanFactory.sol:MicroLoanFactory",
            "label": "deadline",
            "offset": 0,
            "slot": "1",
            "type": "t_uint256"
          },
          {
            "astId": 17454,
            "contract": "src/Borrowers/MicroLoanFactory.sol:MicroLoanFactory",
            "label": "id",
            "offset": 0,
            "slot": "2",
            "type": "t_uint256"
          },
          {
            "astId": 17456,
            "contract": "src/Borrowers/MicroLoanFactory.sol:MicroLoanFactory",
            "label": "borrower",
            "offset": 0,
            "slot": "3",
            "type": "t_address"
          },
          {
            "astId": 17458,
            "contract": "src/Borrowers/MicroLoanFactory.sol:MicroLoanFactory",
            "label": "totalPaid",
            "offset": 0,
            "slot": "4",
            "type": "t_uint256"
          },
          {
            "astId": 17461,
            "contract": "src/Borrowers/MicroLoanFactory.sol:MicroLoanFactory",
            "label": "purpose",
            "offset": 0,
            "slot": "5",
            "type": "t_enum(LoanPurpose)17443"
          },
          {
            "astId": 17463,
            "contract": "src/Borrowers/MicroLoanFactory.sol:MicroLoanFactory",
            "label": "closed",
            "offset": 1,
            "slot": "5",
            "type": "t_bool"
          },
          {
            "astId": 17465,
            "contract": "src/Borrowers/MicroLoanFactory.sol:MicroLoanFactory",
            "label": "amount",
            "offset": 0,
            "slot": "6",
            "type": "t_uint256"
          }
        ],
        "numberOfBytes": "224"
      },
      "t_struct(LoanRequest)17478_storage": {
        "encoding": "inplace",
        "label": "struct LoanStructures.LoanRequest",
        "members": [
          {
            "astId": 17468,
            "contract": "src/Borrowers/MicroLoanFactory.sol:MicroLoanFactory",
            "label": "amount",
            "offset": 0,
            "slot": "0",
            "type": "t_uint256"
          },
          {
            "astId": 17470,
            "contract": "src/Borrowers/MicroLoanFactory.sol:MicroLoanFactory",
            "label": "amountFilled",
            "offset": 0,
            "slot": "1",
            "type": "t_uint256"
          },
          {
            "astId": 17472,
            "contract": "src/Borrowers/MicroLoanFactory.sol:MicroLoanFactory",
            "label": "borrower",
            "offset": 0,
            "slot": "2",
            "type": "t_address"
          },
          {
            "astId": 17474,
            "contract": "src/Borrowers/MicroLoanFactory.sol:MicroLoanFactory",
            "label": "duration",
            "offset": 0,
            "slot": "3",
            "type": "t_uint256"
          },
          {
            "astId": 17477,
            "contract": "src/Borrowers/MicroLoanFactory.sol:MicroLoanFactory",
            "label": "purpose",
            "offset": 0,
            "slot": "4",
            "type": "t_enum(LoanPurpose)17443"
          }
        ],
        "numberOfBytes": "160"
      },
      "t_uint256": {
        "encoding": "inplace",
        "label": "uint256",
        "numberOfBytes": "32"
      }
    }
  }
}